:020000040000FA
:08000000803102288731F12F45
:1006AA0008001630210097000800C73020009B0080
:1006BA009A0191101C309C000800273028009D00E8
:1006CA009C0120009311043028009E000800F900C4
:1006DA007908FA007A08F30012308331AD238331A6
:1006EA0008000C3026009E009C019D0125001F0871
:1006FA00FC3902389F0008007030210099009801E7
:10070A002200960121001A1F8B2B8C2B872B0800A5
:10071A000230F1000030F2008331DE238331F3012D
:10072A0012308331AD23833108008331C3238331EF
:10073A008331812383318331562383318331622389
:10074A00833183317623833183315A2383310800FD
:10075A00F5007308F6007508F700F801BC2B760857
:10076A0084311B2483310130F4007408F8077708B8
:10077A007802031CC12BC22BB42B08002200900163
:10078A008C018D018E01083021009000EF308C0021
:10079A00CD308D00C7308E0023008D0137308C009C
:1007AA002400900108308D002100951322009D013C
:1007BA0008007108FF3EF300FF30723DF400383044
:1007CA0020009500A501A001A1018531C225833130
:1007DA00740820002102031DF42B73082002031C55
:1007EA00F72BF82BEA2B0800FA00FB01FC017B0827
:1007FA00F30012308331AD2383310C30F100003025
:10080A00F2008331DE2383310130FB070030FC3DE7
:10081A007C08803AF90080307902031D162CFA30E0
:10082A007B02031C192C1A2CFC2B0800F0008030C8
:10083A00F2007008F10028001D08F63E9C007108BD
:10084A0072050319292C2A2C2E2C063026009C000E
:10085A00312C033026009C002000931D352C362CA9
:10086A00312C93117236F2007208031D3D2C3E2C76
:10087A00242C26009C010800FA007A08FB00FC01DF
:10088A00FD010130F9007908FC077B08F3007C08B8
:10089A000C3C8331AD238431F3017C088331AD23D1
:1008AA0084314B30F1000030F2008331DE23843191
:1008BA000130F9007908FD070C307D02031C662C13
:1008CA00672C462C0800FA007A08FB00FC01FD019F
:1008DA000130F9007908FC077B08F3007C088331B2
:1008EA00AD238431F3017C080C3C8331AD23843180
:1008FA00F30106308331AD238431F430F100013045
:10090A00F2008331DE2384310130F9007908FD07D2
:10091A000C307D02031C922C932C6D2C0800FA00DB
:10092A007A08FB00FC01FD010130F9007908FC0797
:10093A007B08F3007C088331AD238431F3017C0802
:10094A000C3C8331AD238431F30106308331AD236E
:10095A0084314B30F1000030F2008331DE238431E0
:10096A000130F9007908FD070C307D02031CBE2C0A
:10097A00BF2C992C0800FA007A08FB00FC01FD0143
:10098A00F3010C308331AD2384310130F900790849
:10099A00FC077B08F3007C088331AD238431F30123
:1009AA007C08063C8331AD2384314B30F1000030A2
:1009BA00F2008331DE2384310130F9007908FD0722
:1009CA0006307D02031CEA2CEB2CC52C080083316F
:1009DA009A2384310230F1000030F2008331DE23A1
:1009EA00843183318D23843120000D1DFD2CFE2C92
:1009FA00012D87310E278431833155238431853186
:100A0A004525843120002703031D0C2D0D2D122DA1
:100A1A001930863181268431042D83318D23843126
:100A2A00042D80310228FA007A08FB00FC01FD013E
:100A3A007B08F3000C308331AD2385310130F90096
:100A4A007908FC077B08F3007C088331AD238531E4
:100A5A00F3017C08063C8331AD238531F430F10083
:100A6A000130F2008331DE2385310130F900790843
:100A7A00FD0706307D02031C432D442D1D2D080061
:100A8A0020002A08031D4A2D4B2D562D0D194E2DD7
:100A9A004F2D532D22008E160E12562D22008E1225
:100AAA000E1620008C1D5A2D5B2D602DA301A30A62
:100ABA0022008D14632DA30122008D1020000E1C2C
:100ACA00672D682D6B2DA201A20A6C2DA2010E1DA5
:100ADA006F2D702D732DA701A70A742DA701080089
:100AEA002000911C792D7A2D752D91100130F0007E
:100AFA007008A6070130F0007008A5070A30250221
:100B0A00031C882D892D8E2DA5010130A0070030E8
:100B1A00A13D32302602031C932D942D992DA60156
:100B2A000130F0007008A40732302402031C9E2D05
:100B3A009F2DA42DA4010130F0007008A8078C1D78
:100B4A00A72DA82DB92D2308031DAC2DAD2DB92D28
:100B5A00033029020318B22DB32DB82D0130F0004D
:100B6A007008A907B92DA9018C1DBC2DBD2DC02D5A
:100B7A00A301A30AC12DA30108002000911CC62DC0
:100B8A00C72DC22D9110031022008E1D03140318C5
:100B9A00CF2DD22D22008E15D42D22008E11013098
:100BAA00F00070082000A6070130F0007008A507C1
:100BBA000A302502031CE22DE32DE82DA5010130A0
:100BCA00A0070030A13D32302602031CED2DEE2D88
:100BDA00F32DA6010130F0007008A4073230240278
:100BEA00031CF82DF92DFE2DA4010130F000700828
:100BFA00A8072A08031D022E032E0E2E0D19062EF3
:100C0A00072E0B2E22008E160E120E2E22008E1288
:100C1A000E1620008C1D122E132E182EA301A30AC5
:100C2A0022008D141B2EA30122008D100800200023
:100C3A00AA01AA0A22008E160E1283318D2386314A
:100C4A000130F1000030F2008331DE238631FF30BB
:100C5A00843194248631FA30F1000030F200833175
:100C6A00DE238631FF30843141248631FA30F100A7
:100C7A000030F2008331DE238631FF308431C02414
:100C8A008631FA30F1000030F2008331DE238631FA
:100C9A0083318D2386310130F1000030F200833137
:100CAA00DE238631FF308331F923863183318D2368
:100CBA008631FA30F1000030F2008331DE238631CA
:100CCA002000AA01AA0A22008E120E16FF308331D2
:100CDA006C238631E830F1000330F2008331DE23E1
:100CEA00863183318D238631FA30F1000030F200EB
:100CFA008331DE23863108002000AB002B08AD00CB
:100D0A00AE01AF01AF0AAA01AA0A22008E160E127C
:100D1A0083318D2386310130F1000030F2008331B6
:100D2A00DE23863120002D08F30000308331AD2305
:100D3A008631F3010C308331AD23863120002D0832
:100D4A00F30001308331AD238631F301053083315D
:100D5A00AD2386313230F1000030F2008331DE23D8
:100D6A0086312000AC010130F9007908AE07013064
:100D7A00F9007908AF072D08F3002E088331AD2357
:100D8A008631F30120002E080C3C8331AD238631D5
:100D9A0020002D08F3002F088331AD238631F3019B
:100DAA0020002F08063C8331AD2386313230F10012
:100DBA000030F2008331DE2386310130F9007908F0
:100DCA002000AC0704302C02031CEC2EED2EB82EAA
:100DDA000630AF002D08F3000C308331AD23863185
:100DEA00F30100308331AD23863120002D08F30052
:100DFA0006308331AD238631F30100308331AD23D0
:100E0A0086316430F1000030F2008331DE2386310E
:100E1A0008002000AB01AC01AA01AA0A22000D16A3
:100E2A008D16DD2F85317525873120000E1D1E2F69
:100E3A001F2F232F22008E160E12262F22008E120B
:100E4A000E1620002908031D2B2F2C2F482F2908A6
:100E5A002C060319312F322F482FAC0122000D1610
:100E6A008D168D1083318D2387312000A801402FE4
:100E7A008531752587310230200028020318462F54
:100E8A00472F3D2FB12F2903031D4C2F4D2F6A2FBA
:100E9A0029082C060319522F532F6A2FAC01AC0ACA
:100EAA0022000D168D168D1483318D238731200073
:100EBA00A801622F8531752587310230200028026A
:100ECA000318682F692F5F2FB12F02302906031DDF
:100EDA006F2F702F8E2F29082C060319752F762F46
:100EEA008E2F0230AC0022000D128D128D10193097
:100EFA0083316C2387312000A801862F853175251F
:100F0A00873102302000280203188C2F8D2F832F5F
:100F1A00B12F03302906031D932F942FB12F2908CF
:100F2A002C060319992F9A2FB12F0330AC002200F7
:100F3A000D128D128D10FF3083316C238731200002
:100F4A00A801AA2F85317525873102302000280291
:100F5A000318B02FB12FA72F0E1DB42FB52FC82FEE
:100F6A002B08031DB92FBA2FC82FAB01AB0A2200D9
:100F7A008E160E120530843168248731053085318A
:100F8A0018258731DD2F0E19CB2FCC2FDD2F2B0300
:100F9A00031DD02FD12FDD2FAB0122008E120E168A
:100FAA000530843168248731053085311825873129
:100FBA0020000D19E12FE22F172F22000D128D129A
:100FCA008D1083318D2387310130F1000030F2001A
:100FDA008331DE23873108002000A001A101A2018C
:100FEA00A301A401A501A601A701A801A901AA01BB
:060FFA0020008431EC2C04
:020000040001F9
:04000E00E43FFF1FAD
:00000001FF
