:08000000803102288731F52F41
:100402000800080028001508080028001715080031
:10041200280017110800163021009700080022005A
:100422000D128D12080022000D168D1608002200F2
:100432008D100C10080022008D140C140800F0001E
:100442007008280096000800F00070082800950047
:100452000800F30112308231AF22823108006400B9
:1004620080010131890B312A0034C73020009B0002
:100472009A0191101C309C000800F9302800960067
:100482009501200093103D30280097000800273086
:1004920028009D009C0120009311043028009E003A
:1004A2000800F9007908FA007A08F3001230823164
:1004B200AF22823108000C3026009E009C019D0173
:1004C20025001F08FC3902389F0008007030210007
:1004D200990098012200960121001A1F712A722A9E
:1004E2006D2A08000030200093180130F0007008D7
:1004F20003197C2A7D2A7E2A9310080082319922D0
:10050200823182318B2282318531A4258231852A42
:10051200803102280230F1000030F2008231C5221F
:10052200823182312A2282318231022282310800D2
:1005320083312623823182316722823182310C2239
:10054200823182314822823182313E2282318231AD
:100552005C2282318231362282310800F500730832
:10056200F6007508F700F801BE2A760883314123A8
:1005720082310130F4007408F80777087802031C0E
:10058200C32AC42AB62A08007208F4007108F300CC
:100592002000AC01A001A1018431C624823174087B
:1005A20020002102031DD72A73082002031CDA2A25
:1005B200DB2ACD2A080020000D19E02AE12AE52ACB
:1005C20022008E160E12E82A22008E120E16023019
:1005D200F1000030F2008231C5228231FF308231D7
:1005E20052228231080020000D19F82AF92AFD2A28
:1005F20022008E160E12002B22008E120E160230D0
:10060200F1000030F2008231C5228231193082318C
:1006120052228231080020008E1C102B112B142B29
:10062200AE01AE0A152BAE010C1F182B192B1C2B79
:10063200AD01AD0A1D2BAD018E1D202B212B242BCC
:10064200B201B20A252BB2010800220090018C01EE
:100652008D018E01083021009000EE308C00CD30EB
:100662008D00CF308E0023008D0127308C002400B6
:10067200900108308D002100951322009D01080091
:10068200F0008030F2007008F10028001D08F63EEC
:100692009C007108720503194F2B502B542B063006
:1006A20026009C00572B033026009C002000931D3F
:1006B2005B2B5C2B572B93117236F2007208031DD1
:1006C200632B642B4A2B26009C010800FA007A084F
:1006D200FB00FC01FD010130F9007908FC077B08F1
:1006E200F3007C088231AF228331F3017C080C3C99
:1006F2008231AF228331F30106308231AF2283315E
:10070200F430F1000130F2008231C5228331013030
:10071200F9007908FD070C307D02031C912B922B06
:100722006C2B0800FA007A08FB00FC01FD017B0833
:10073200F3000C308231AF2283310130F9007908A5
:10074200FC077B08F3007C088231AF228331F3017E
:100752007C08063C8231AF228331F430F100013053
:10076200F2008231C52283310130F9007908FD0798
:1007720006307D02031CBE2BBF2B982B0800FA000B
:10078200FB01FC017B08F30012308231AF2283317E
:100792000C302000A2000030A300D62B0130F10063
:1007A2000030F2008231C522833101302000A202E2
:1007B2000030A33B220A031DE32B230A0319E22B79
:1007C200E32BE82B34080319E72BE82BCF2B01305E
:1007D200FB070030FC3D7C08803AF900803079024A
:1007E200031DF52BFA307B02031CF82BF92BC32BCC
:1007F2000800FA007A08FB00FC01FD010130F90053
:100802007908FC077B08F3007C080C3C8231AF229C
:100812008331F3017C088231AF228331F301063048
:100822008231AF2283314B302000A2000030A3007E
:10083200212C0130F1000030F2008231C5228331D7
:1008420001302000A2020030A33B220A031D2E2CFD
:10085200230A03192D2C2E2C332C34080319322C85
:10086200332C1A2C0130F9007908FD070C307D0277
:10087200031C3C2C3D2CFF2B0800FA007A08FB00DD
:10088200FC01FD010130F9007908FC077B08F30047
:100892007C088231AF228431F3017C080C3C823126
:1008A200AF228431F30106308231AF2284314B30E2
:1008B2002000A2000030A300652C0130F1000030BE
:1008C200F2008231C522843101302000A2020030C0
:1008D200A33B220A031D722C230A0319712C722CCA
:1008E200772C34080319762C772C5E2C0130F90012
:1008F2007908FD070C307D02031C802C812C432CCF
:100902000800FA007A08FB00FC01FD01F3010C303B
:100912008231AF2284310130F9007908FC077B086B
:10092200F3007C088231AF228431F3017C08063C5B
:100932008231AF2284314B302000A2000030A3006C
:10094200A92C0130F1000030F2008231C52284313D
:1009520001302000A2020030A33B220A031DB62C64
:10096200230A0319B52CB62CBB2C34080319BA2C54
:10097200BB2CA22C0130F9007908FD0706307D025C
:10098200031CC42CC52C872C08002000911CCA2CE7
:10099200CB2CC62C91100130F0007008AC070A3045
:1009A2002C02031CD52CD62CE52CAC010130A0075F
:1009B2000030A13D240825040319E02CE12CE52C8C
:1009C2000130A4020030A53B8C1DE82CE92CEE2C52
:1009D200B301B30A22008D14F12CB30122008D1051
:1009E20020000E1CF52CF62CF92CAF01AF0AFA2CC4
:1009F200AF010E1DFD2CFE2C012DB401B40A022DF7
:100A0200B4018E1D052D062D0A2D22000D168D1600
:100A12000D2D22000D128D1208002000931C122DA4
:100A2200132D0E2D93100130F0007008A70705302A
:100A32002702031C1D2D1E2D562DA7010310220077
:100A42000D1E03140318262D292D22000D162B2D01
:100A520022000D12F10120008E1C302D312D322D7D
:100A6200F1140C1F352D362D372D71150E1D3A2D13
:100A72003B2D3C2D71148E1D3F2D402D412DF11625
:100A82008C1D442D452D462D71160E1C492D4A2DC7
:100A92004B2DF115260871060319502D512D542D99
:100AA2007108A600562D7108B00008002000911CA4
:100AB2005B2D5C2D572D91100130F0007008AC07B2
:100AC2000130F0007008AB070A302C02031C6A2DBB
:100AD2006B2D702DAC010130A0070030A13D3230EA
:100AE2002B02031C752D762D7B2DAB010130F000FE
:100AF2007008AA0732302A02031C802D812D862D10
:100B0200AA010130F0007008A9078C1D892D8A2DD9
:100B12009B2D3308031D8E2D8F2D9B2D0330280214
:100B22000318942D952D9A2D0130F0007008A80716
:100B32009B2DA8018C1D9E2D9F2DA22DB301B30AC2
:100B4200A32DB30108008431C624853185310E25D9
:100B5200853120003403031DAF2DB02DB42D193083
:100B62008631EC26853120003303031DB92DBA2DC1
:100B7200BE2D82311C228531C12D82311822853150
:100B820020003203031DC62DC72DCB2D8231142226
:100B92008531CE2D82311022853120002408250492
:100BA200031DD42DD52DDE2D3103031DD92DDA2DB4
:100BB200DE2DFF308531FD258531200024082504F6
:100BC200031DE42DE52DFC2D83310C2385312000FE
:100BD200301DEC2DED2DF12D8231DC228531FC2DE5
:100BE200B01CF42DF52DF92D8231F4228531FC2D26
:100BF20082312A22853108002000B10122008E169E
:100C02000E120230F1000030F2008231C52285312D
:100C120020003408031D0E2E0F2E142EFF308431B7
:100C22003E248531162E22008E12FA302000A200B8
:100C32000030A300232E0130F1000030F200823197
:100C4200C522853101302000A2020030A33B220AD6
:100C5200031D302E230A03192F2E302E352E340871
:100C62000319342E352E1C2E3408031D392E3A2E2C
:100C72003F2EFF308331FA238531412E22008E121E
:100C8200FA302000A2000030A3004E2E0130F10005
:100C92000030F2008231C522853101302000A202EB
:100CA2000030A33B220A031D5B2E230A03195A2E8E
:100CB2005B2E602E340803195F2E602E472E3408F7
:100CC200031D642E652E6A2EFF3084318224853105
:100CD2006C2E22008E12FA302000A2000030A300F7
:100CE200792E0130F1000030F2008231C5228531C7
:100CF20001302000A2020030A33B220A031D862EEF
:100D0200230A0319852E862E8B2E340803198A2E68
:100D12008B2E722E82312A2285310230F100003070
:100D2200F2008231C522853120003408031D9A2E3B
:100D32009B2EA02EFF308331C0238531A22E2200AC
:100D42008E1282312A2285310230F1000030F20007
:100D52008231C522853120003408031DB12EB22E06
:100D6200BA2E22008E120E16FF30823152228531A7
:100D7200BD2E22008E120E1298302000A2003A30B0
:100D8200A300CA2E0130F1000030F2008231C522E8
:100D9200853101302000A2020030A33B220A031D4C
:100DA200D72E230A0319D62ED72EDC2E3408031988
:100DB200DB2EDC2EC32E82312A2285310130F10056
:100DC2000030F2008231C522853158302000A40063
:100DD2000230A50008002000B5003508B700B801B0
:100DE200B901B90A22008E160E1282312A228631E8
:100DF2000130F1000030F2008231C522863120003C
:100E02003403031D052F062F3C2F3708F300003053
:100E12008231AF228631F3010C308231AF2286312A
:100E220020003708F30001308231AF228631F3010E
:100E320005308231AF22863128302000A2000030F6
:100E4200A3002A2F0130F1000030F2008231C522C6
:100E5200863101302000A2020030A33B220A031D8A
:100E6200372F230A0319362F372F3C2F3403031948
:100E72003B2F3C2F232F3403031D402F412F8E2F56
:100E8200B6010130F9007908B8070130F900790894
:100E9200B9073708F30038088231AF228631F301EF
:100EA200200038080C3C8231AF22863120003708FE
:100EB200F30039088231AF228631F301200039086C
:100EC200063C8231AF22863128302000A200003059
:100ED200A300722F0130F1000030F2008231C522EE
:100EE200863101302000A2020030A33B220A031DFA
:100EF2007F2F230A03197E2F7F2F842F3403031998
:100F0200832F842F6B2F0130F9007908B607043044
:100F12003602031C8D2F8E2F422F3403031D922F76
:100F2200932FCF2F0630B9003708F3000C308231EF
:100F3200AF228631F30100308231AF2286312000A8
:100F42003708F30006308231AF228631F3010030D8
:100F52008231AF22863190302000A2000130A300FE
:100F6200B92F0130F1000030F2008231C522863102
:100F720020002308FA00A203220AF9000319A3039E
:100F820000307A02023003197902031CC92FCA2FDA
:100F9200CF2F34030319CE2FCF2FB22F22082304D1
:100FA200031DD42FD52FDF2FB101B10ADF2F01305E
:100FB200F1000030F2008231C52286312000340374
:100FC2000319E42FE52FD82F82312A2286310130EE
:100FD200F1000030F2008231C52286315830200003
:100FE200A4000230A50008002030840000308500F3
:0E0FF2001530823130228731200082317F2A73
:020000040001F9
:08000000FF3FFF3FFF3FFF3F00
:04000E00E43FFF1FAD
:00000001FF
