:020000040000FA
:08000000803102288731F52F41
:10076600080016302100970008006400800101315E
:10077600890BB92B0034C73020009B009A019110D9
:100786001C309C000800273028009D009C0120009A
:100796009311043028009E000800F9007908FA0039
:1007A6007A08F300123084311124833108000C30AA
:1007B60026009E009C019D0125001F08FC39023879
:1007C6009F000800703021009900980122009601D0
:1007D60021001A1FEF2BF02BEB2B08000230F10043
:1007E6000030F200843127248331F3011230843142
:1007F60011248331080084313E2483318331E5237B
:1008060083318331B42383318331C62383318331EA
:10081600DA2383318331BE2383310800F500730860
:10082600F6007508F700F801202C76088431592463
:1008360084310130F4007408F80777087802031C45
:10084600252C262C182C08007208F4007108F300D9
:100856002000AC01A001A1018531B52584317408C1
:1008660020002102031D392C73082002031C3C2C96
:100876003D2C2F2C0800220090018C018D018E0149
:10088600083021009000EF308C00CD308D00CF3045
:100896008E0023008D0127308C0024009001083043
:1008A6008D002100951322009D010800F000803084
:1008B600F2007008F10028001D08F63E9C00710841
:1008C60072050319672C682C6C2C063026009C00D8
:1008D6006F2C033026009C002000931D732C742C73
:1008E6006F2C93117236F2007208031D7B2C7C2C40
:1008F600622C26009C0108008331FE2384310230DD
:10090600F1000030F2008431272484318331F12351
:1009160084318331B32384318531B5258431200078
:100926002E03031D972C982C9C2C19308631EC260F
:100936008431200024082504031DA22CA32C8F2C0F
:100946002D03031DA72CA82C8F2CFF308531FD25E8
:1009560084318F2C80310228FA00FB01FC017B08D0
:10096600F30012308431112484310C302000A200AF
:100976000030A300C52C0130F1000030F2008431B4
:100986002724843101302000A2020030A33B220A32
:10099600031DD22C230A0319D12CD22CD72C2E08B6
:1009A6000319D62CD72CBE2C0130FB070030FC3D9A
:1009B6007C08803AF90080307902031DE42CFA3075
:1009C6007B02031CE72CE82CB22C0800FA007A08FC
:1009D600FB00FC01FD010130F9007908FC077B08EA
:1009E600F3007C080C3C843111248431F3017C082B
:1009F600843111248431F301063084311124843189
:100A06004B302000A2000030A300102D0130F10071
:100A16000030F20084312724843101302000A20204
:100A26000030A33B220A031D1D2D230A03191C2D8A
:100A36001D2D222D2E080319212D222D092D0130C1
:100A4600F9007908FD070C307D02031C2B2D2C2D97
:100A5600EE2C0800FA007A08FB00FC01FD010130CB
:100A6600F9007908FC077B08F3007C08843111241F
:100A76008531F3017C080C3C843111248531F30166
:100A860006308431112485314B302000A20000301D
:100A9600A300542D0130F1000030F20084312724E8
:100AA600853101302000A2020030A33B220A031D3B
:100AB600612D230A0319602D612D662D2E08031959
:100AC600652D662D4D2D0130F9007908FD070C3096
:100AD6007D02031C6F2D702D322D0800FA007A0856
:100AE600FB00FC01FD01F3010C308431112485313A
:100AF6000130F9007908FC077B08F3007C08843193
:100B060011248531F3017C08063C8431112485319A
:100B16004B302000A2000030A300982D0130F100D8
:100B26000030F20084312724853101302000A202F2
:100B36000030A33B220A031DA52D230A0319A42D69
:100B4600A52DAA2D2E080319A92DAA2D912D013008
:100B5600F9007908FD0706307D02031CB32DB42D7C
:100B6600762D08002000911CB92DBA2DB52D9110B7
:100B76000130F0007008AC070A302C02031CC42DAB
:100B8600C52DD42DAC010130A0070030A13D2408AD
:100B960025040319CF2DD02DD42D0130A402003009
:100BA600A53B8C1DD72DD82DDD2DA901A90A220024
:100BB6008D14E02DA90122008D1020000E1CE42DBD
:100BC600E52DE82DA801A80AE92DA8010E1DEC2D9A
:100BD600ED2DF02DAE01AE0AF12DAE018E1DF42DD8
:100BE600F52DF92D22000D168D16FC2D22000D1265
:100BF6008D1208002000AD0122008E160E12023062
:100C0600F1000030F20084312724853120002E08BF
:100C1600031D0E2E0F2E142EFF3085312D25853106
:100C2600162E22008E12FA302000A2000030A300F9
:100C3600232E0130F1000030F20084312724853163
:100C460001302000A2020030A33B220A031D302EF1
:100C5600230A03192F2E302E352E2E080319342E73
:100C6600352E1C2E2E08031D392E3A2E3F2EFF3010
:100C76008431E9248531412E22008E12FA3020007B
:100C8600A2000030A3004E2E0130F1000030F20029
:100C960084312724853101302000A2020030A33B95
:100CA600220A031D5B2E230A03195A2E5B2E602E81
:100CB6002E0803195F2E602E472E2E08031D642E64
:100CC600652E6A2EFF308531712585316C2E220006
:100CD6008E12FA302000A2000030A300792E0130D7
:100CE600F1000030F20084312724853101302000E4
:100CF600A2020030A33B220A031D862E230A0319F3
:100D0600852E862E8B2E2E0803198A2E8B2E722E5A
:100D16008331F12385310230F1000030F200843155
:100D26002724853120002E08031D9A2E9B2EA02EE7
:100D3600FF308431AF248531A22E22008E128331FA
:100D4600F12385310230F1000030F200843127248E
:100D5600853120002E08031DB12EB22EBA2E220098
:100D66008E120E16FF308331D0238531BD2E220020
:100D76008E120E1298302000A2003A30A300CA2E1E
:100D86000130F1000030F200843127248531013032
:100D96002000A2020030A33B220A031DD72E230AFD
:100DA6000319D62ED72EDC2E2E080319DB2EDC2EA9
:100DB600C32E8331F12385310130F1000030F2007A
:100DC60084312724853158302000A4000230A50044
:100DD60008002000B1003108B300B401B501B50A1E
:100DE60022008E160E128331F12386310130F10076
:100DF6000030F20084312724863120002E03031DA3
:100E0600052F062F3C2F3308F300003084311124C0
:100E16008631F3010C3084311124863120003308E9
:100E2600F3000130843111248631F3010530843119
:100E36001124863128302000A2000030A3002A2F7A
:100E46000130F1000030F200843127248631013070
:100E56002000A2020030A33B220A031D372F230ADB
:100E66000319362F372F3C2F2E0303193B2F3C2F08
:100E7600232F2E03031D402F412F8E2FB201013049
:100E8600F9007908B4070130F9007908B507330885
:100E9600F3003408843111248631F301200034082C
:100EA6000C3C84311124863120003308F3003508C8
:100EB600843111248631F30120003508063C843143
:100EC6001124863128302000A2000030A300722FA2
:100ED6000130F1000030F2008431272486310130E0
:100EE6002000A2020030A33B220A031D7F2F230A03
:100EF60003197E2F7F2F842F2E030319832F842F10
:100F06006B2F0130F9007908B20704303202031C56
:100F16008D2F8E2F422F2E03031D922F932FCF2F0F
:100F26000630B5003308F3000C30843111248631C5
:100F3600F301003084311124863120003308F30098
:100F46000630843111248631F301003084311124B6
:100F5600863190302000A2000130A300B92F013065
:100F6600F1000030F2008431272486312000230866
:100F7600FA00A203220AF9000319A30300307A0239
:100F8600023003197902031CC92FCA2FCF2F2E0353
:100F96000319CE2FCF2FB22F22082304031DD42FDF
:100FA600D52FDF2FAD01AD0ADF2F0130F100003064
:100FB600F20084312724863120002E030319E42F02
:100FC600E52FD82F8331F12386310130F10000302F
:100FD600F20084312724863158302000A4000230E4
:100FE600A5000800203084000030850011308331D0
:0A0FF600B8238731200084317F2CDE
:020000040001F9
:04000E00E43FFF1FAD
:00000001FF
