:020000040000FA
:100000008031382808000F347E1480318B1E092877
:100010000A2812280B1D0D280E2812288E31712651
:10002000803136280B1F1528162836282100111E6E
:100030001A281B2826282000111E1F2820282628C1
:100040002D088A002C080A00803136282100911ED4
:100050002A282B2836282000911E2F2830283628C1
:100060002B088A002A080A00803136287E100900F1
:1000700080313A28803103208031EF00FC012030AC
:100080008400003085003D308D31F1258031A03075
:1000900084000030850020308D31F12580317E10C4
:1000A00020008531DD2D20004803031D58285928E4
:1000B00042294608031D5D285E2842290830C400F5
:1000C00042298E3123268031003A03196828692895
:1000D0006A2914308E31402680312000C801C80AB8
:1000E000C401C40A6A298E3123268031003A0319DB
:1000F0007A287B286A298E3194268031013A031DA3
:1001000082288328872802302000C4006A2908300A
:100110002000C4006A298E3123268031003A031959
:10012000922893286A29873184278031553A031D04
:100130009A289B28872803302000C4006A298E3122
:1001400023268031003A0319A628A7286A29873177
:10015000842780312000D00050088E31EB2680317A
:10016000003A031DB428B528B6288728F101F10A02
:10017000200050088431C82480312000DA005A035E
:10018000031DC328C428CF280230F1005008843151
:10019000C82480312000DB000430C4006A298D317E
:1001A000B825803106302000C4006A298E3123260C
:1001B0008031003A0319DD28DE286A298731842737
:1001C00080312000EB004308513E860087016B0818
:1001D00081000130EB006B08C3075B084302031C7E
:1001E000F228F3286A29C3010530C4006A298E3138
:1001F00023268031003A0319FE28FF286A29873117
:10020000842780312000D9005008F1005130F200DD
:100210005B088631A3268031200059060319112975
:100220001229132987280730C4006A29500884310D
:100230005D24803107302000C40031088A00300876
:100240000A0081318D31A32580312000C301C8010E
:100250000030F100F2000D30F3000030F4005030B7
:100260008F310527803123009E1C372938293E29EC
:100270008D31BD2580312000C4016A29093020005C
:10028000C4006A294408EB00EC016C08003A031929
:100290004A296A296B08003A03196128013A0319AF
:1002A0007328033A03198B28013A03199F28073A48
:1002B0000319D628013A0319F728033A0319162916
:1002C000013A03191D290F3A03192229013A03198A
:1002D00033296A2908002000CD01CB0163308F311A
:1002E000A62781312000E200ED2949306506031977
:1002F0007A297B29812951306506031D80298129AE
:100300008529F830CD054B14D1290A30650603192B
:100310008A298B2997291430650603199029912978
:10032000972912306506031D962997299D294D08A6
:10033000F8390138CD00CB14D1298C30650603196A
:10034000A229A329AF29943065060319A829A92950
:10035000AF29AC306506031DAE29AF29B5294D087C
:10036000F8390338CD004B159B294C306506031D29
:10037000BA29BB29C0294D08F8390238CD00832994
:100380000B3065060319C529C629CC29133065062B
:10039000031DCB29CC29D1294D08F8390438CD00CB
:1003A000B329E41FD429D529D729CD15CB15641F2E
:1003B000DA29DB29DD294D17CB15641EE029E12957
:1003C000E3294D16CB16E41EE629E729F229CD16BE
:1003D0004B17F229CD01CB01F2296208013A03192A
:1003E0007529EA294B1CF529F629FA298D31892529
:1003F0008131FD298D31882581312000CB1C012AD6
:10040000022A062A803102208131092A8D318A256B
:10041000813120004B1D0D2A0E2A122A8D31912583
:1004200081311A2A4F08031D162A172A1A2A8D31DC
:100430008E2581312000CB1D1E2A1F2A232A8D31B3
:10044000AB258131262A8D31A725813120004E0828
:10045000031D2B2A2C2A492ACB1E2F2A302A3F2A59
:100460004908031D342A352A3B2AC901C90A8D319E
:10047000F7258131652A8D31FE258131652A4903B1
:10048000031D432A442A652AC9018F313A27813145
:10049000652A4B1F4C2A4D2A5C2A4A08031D512A03
:1004A000522A582ACA01CA0A8E3105268131652A84
:1004B0008E310C268131652A4A03031D602A612A88
:1004C000652ACA018F315527813108002000BB0100
:1004D000BB0A22000D168D162000B801B80A362B73
:1004E00085318C25823120000E1D772A782A7C2ABE
:1004F00022008E160E127F2A22008E120E16200067
:100500003708031D842A852AA12A370836060319CD
:100510008A2A8B2AA12AB60122000D168D168D106B
:100520008D31C72582312000BA01992A85318C2569
:100530008231023020003A0203189F2AA02A962A0C
:100540000A2B3703031DA52AA62AC32A3708360615
:100550000319AB2AAC2AC32AB601B60A22000D162B
:100560008D168D148D31C72582312000BA01BB2A2A
:1005700085318C258231023020003A020318C12ACD
:10058000C22AB82A0A2B02303706031DC82AC92AF4
:10059000E72A370836060319CE2ACF2AE72A02307F
:1005A000B60022000D128D128D1019308E312C26BE
:1005B00082312000BA01DF2A85318C258231023058
:1005C00020003A020318E52AE62ADC2A0A2B033027
:1005D0003706031DEC2AED2A0A2B370836060319C5
:1005E000F22AF32A0A2B0330B60022000D128D12D4
:1005F0008D10FF308E312C2682312000BA01032B62
:1006000085318C258231023020003A020318092BF3
:100610000A2B002B0E1D0D2B0E2B212B3908031D31
:10062000122B132B212BB901B90A22008E160E12A0
:10063000053087310727823105308631D626823151
:10064000362B0E19242B252B362B3903031D292B72
:100650002A2B362BB90122008E120E160530873157
:100660000727823105308631D626823120000D19C8
:100670003A2B3B2B702A22000D128D128D108D31DA
:10068000C72582310130F2000030F3008F311F277F
:10069000823108002000DD005D08DF00E001E1019B
:1006A000E10ABB01BB0A22008E160E128D31C7254E
:1006B00083310130F2000030F3008F311F27833186
:1006C00020005F08F40000308E31A7268331F4014A
:1006D0000C308E31A726833120005F08F4000130F2
:1006E0008E31A7268331F40105308E31A726833160
:1006F0003230F2000030F3008F311F2783312000A9
:10070000DE010130FA007A08E0070130FA007A08C9
:10071000E1075F08F40060088E31A7268331F401F9
:10072000200060080C3C8E31A726833120005F0832
:10073000F40061088E31A7268331F401200061089E
:10074000063C8E31A72683313230F2000030F300B0
:100750008F311F2783310130FA007A082000DE072D
:1007600004305E02031CB52BB62B812B0630E10052
:100770005F08F4000C308E31A7268331F40100307D
:100780008E31A726833120005F08F40006308E31B9
:10079000A7268331F40100308E31A72683316430DF
:1007A000F2000030F3008F311F2783310800F20080
:1007B0007208F300F318DD2BDF2B0130E02B003043
:1007C000F1007318E42BE62B0130E72B00307106A3
:1007D000031DEB2BED2B7317EE2B73137319F12BFA
:1007E000F32B0130F42B0030F100731BF82BFA2BA4
:1007F0000130FB2B00307106031DFF2B012C7317FA
:10080000022C7313731A052C072C0130082C0030AE
:10081000F100731B0C2C0E2C01300F2C00307106D4
:10082000031D132C152C7317162C7313F319192C85
:100830001B2C01301C2C0030F100F318202C222C32
:100840000130232C00307106031D272C292CF317AF
:100850002A2CF313731A2D2C2F2C0130302C00303E
:10086000F100F31B342C362C0130372C003071068C
:10087000031D3B2C3D2CF3173E2CF313F31A412C94
:10088000432C0130442C0030F100F31B482C4A2C3F
:1008900001304B2C00307106031D4F2C512CF317E7
:1008A000522CF3130310F31F03140318582C5A2C63
:1008B000F3175B2CF313730808002000E3002F08E4
:1008C000E6002E08E5003F30DF005F08E305E401A5
:1008D0007C2C650884006608850000086306031DFB
:1008E000722C732C742C822C0430E5070030E63D0A
:1008F0000130DF005F08E40747086402031C812C15
:10090000822C692C6608E0006508DF0001305F0773
:10091000840060080318600A85000008DA00660891
:10092000E0006508DF0002305F07840060080318FC
:10093000600A85000008DB006608E0006508DF004B
:1009400003305F07840060080318600A8500000810
:10095000F1005B08E100E2016108F2006208F300C7
:1009600051308731AA27843120005008F1005130DE
:10097000F2005B088631A32684312000D90050089C
:10098000F9005130FA005B088731CF278431080025
:10099000F40020002F08F7002E08F6003F30F20088
:1009A0007208F405F501F72C7608840077088500B5
:1009B00000087406031DDD2CDE2CDF2C1E2D0430F8
:1009C000F6070030F73D4708FF3EF200FF300318FE
:1009D0000030F300750872067304031DF02CF12C2F
:1009E000F32C0230312D0130F2007208F507470870
:1009F0007502031CFC2CFD2CD42C1E2D76088400C3
:100A0000770885000008312D7708F3007608F2009A
:100A100001307207840073080318730A8500000808
:100A2000312D7708F3007608F20002307207840057
:100A300073080318730A85000008312D7108F2004D
:100A4000F3017308003A0319262DF12C7208003ABD
:100A50000319FE2C013A0319042D033A0319112D31
:100A6000F12C08002000911C362D372D322D393005
:100A7000F10071089A0791100130F1007108B50773
:100A80000130F1007108B4070A303402031C492D0B
:100A90004A2D4F2DB4010130A0070030A13D323066
:100AA0003502031C542D552D5A2DB5010130F1008E
:100AB0007108B30732303302031C5F2D602D652DA2
:100AC000B3010130F1007108BA073B08031D692D1D
:100AD0006A2D752D0D196D2D6E2D722D22008E161D
:100AE0000E12752D22008E120E1620003808031DDE
:100AF0007A2D7B2D8B2D8C1D7E2D7F2D842DCF016E
:100B0000CF0A22008D148B2D4B19872D882D8B2D0C
:100B1000CF0122008D1008002000911C902D912DF6
:100B20008C2D3930F10071089A0791100130F100D5
:100B30007108B5070130F1007108B4070A303402BA
:100B4000031CA32DA42DA92DB4010130A007003052
:100B5000A13D32303502031CAE2DAF2DB42DB501B1
:100B60000130F1007108B30732303302031CB92D94
:100B7000BA2DBF2DB3010130F1007108BA078C1DE9
:100B8000C22DC32DD42D4F08031DC72DC82DD42D24
:100B9000033037020318CD2DCE2DD32D0130F100B7
:100BA0007108B707D42DB7018C1DD72DD82DDB2D9B
:100BB000CF01CF0ADC2DCF0108002000EE018F31DC
:100BC000C22785310230F2000030F3008F311F2739
:100BD000853120000D1DED2DEE2DF12D8231662287
:100BE00085310230F2000030F3008F311F2785314C
:100BF00022008D142000B801B80A853132258531D4
:100C000020008E1F042E052E102E0A306E020318AF
:100C10000A2E0B2E122E0130ED006D08EE07FD2D71
:100C2000EE01FD2D8E318126853122008D102000B0
:100C3000B8018B170B178D191E2E1F2E212ECE01DA
:100C4000232ECE01CE0A80315320853185313225C5
:100C50008531232E80313828210091126A30F1002D
:100C60000630F2008D31DF25863121001112DE3091
:100C7000F1000F30F2008D31E52586311830230068
:100C80009F0090309D0004309E00FF309B0002309A
:100C90009C008630F1000D30F2008D31D325863175
:100CA0009B30F1000D30F2008D31D925863197301F
:100CB000F1000D30F2008D31CD2586312000BD01CF
:100CC000C201C1010830C000FC01BF01BE0121000A
:100CD000911608007C08A03E860087018101230050
:100CE0001D1D732E742E7F2E7C08A03E860087016A
:100CF0008114200029088A0028080A008631230070
:100D00009D1C832E842E8F2E7C08A03E860087019A
:100D10000115200027088A0026080A0086317C0871
:100D2000A03E8600870101080319972E982E9F2E5A
:100D3000200025088A0024080A008631A22E8E3160
:100D4000D32686310800F5007108F300F40173081A
:100D5000F7007408F800F601CC2E720886008701AF
:100D600001087707F70078080318780AF8000130BF
:100D7000F3007308F207013078020030031977029C
:100D8000031CC32EC42EC82EFF30F7020030F83BE0
:100D90000130F3007308F60775087602031CD12EA4
:100DA000D22EAD2EF709F809770808002000DD00E3
:100DB0005D08DE00DF01E0015E08F4000C308E31DA
:100DC000A72686310130FA007A082000DF075E0886
:100DD000F4005F088E31A7268631F40120005F08F9
:100DE000063C8E31A7268631F430F2000130F30044
:100DF0008F311F2786310130FA007A082000E00782
:100E000006306002031C052F062FDC2E0800200090
:100E1000DD005D08DE00DF01E0010130FA007A0844
:100E2000DF075E08F4005F088E31A7268731F401E2
:100E300020005F080C3C8E31A7268731F401063074
:100E40008E31A7268731F430F2000130F3008F3164
:100E50001F2787310130FA007A082000E0070C30A4
:100E60006002031C342F352F0D2F0800F2002000E4
:100E7000400803193C2F3D2F372F2100111A412F15
:100E8000422F462F720823009A005B2F1112200078
:100E90004208B03E86008701720881000130F100EF
:100EA0007108C20708304202031C572F582F592FD0
:100EB000C2010130C002210011160800F10080308B
:100EC000F3007108F20028001D08F63E9C0072082D
:100ED000730503196C2F6D2F712F063026009C00AF
:100EE000742F033026009C002000931D782F792F4B
:100EF000742F93117336F3007308031D802F812F15
:100F0000672F26009C01080020003E080319892F46
:100F10008A2F842F3F08A03E860087010108BD006C
:100F20003F08A83E860087010108F2000130F10069
:100F30007108BF0708303F02031C9F2FA02FA12F6D
:100F4000BF012100911201302000BE022100911644
:100F500072080800F8007108F7007808F600C22F40
:100F60007708860087010108F5000130F400740855
:100F7000F707760886008701750881000130F400C4
:100F80007408F6070130F2020030F33B720A031DC9
:100F9000CD2F730A031DCD2FCE2FB02F08002000B8
:100FA000DD00DE01E22F5E087A07FB007B08860089
:100FB000870101088731362787310130FB007B0824
:100FC0002000DE075D085E02031CE72FE82FD32F09
:100FD0007908F1007A08F2005D088631A32687318E
:100FE0008731362787310800703021009900980139
:100FF0002200960121001A1FFE2FFF2FFA2F080052
:101B0C000800080008000800080020003D08080034
:101B1C0022008D10080022008D14080020001508EA
:101B2C0008008E31D3268D31080023001D121D169E
:101B3C00080020003C08950008002000C501C601E3
:101B4C00080022000D128D12080022000D168D16B1
:101B5C000800163021009700080023009F131F1463
:101B6C009F14080023001D1221009112080023006D
:101B7C001D16210091160800F10071082000950037
:101B8C000800F40112308E31A7268D31080072083E
:101B9C002000A5007108A400080072082000A9000C
:101BAC007108A800080072082000A7007108A600A0
:101BBC00080072082000AB007108AA000800720827
:101BCC002000AD007108AC00080072082000A300D2
:101BDC007108A2000800640080010131890BF22D0C
:101BEC0000348B13FF3083314A238D318B1708005F
:101BFC008B13FF308E312C268D318B1708008B13F5
:101C0C00FF3083314A238E318B1708008B13FF3042
:101C1C008E312C268E318B1708006330F1000E307C
:101C2C00F2008D31EB258E310800633020009B00D3
:101C3C009A0191103C309C00080020003E08031DC6
:101C4C00282E2A2E01302B2E00300800FA007A089C
:101C5C00FB007B08F40012308E31A7268E31080071
:101C6C00273028009D009C0120009311043028008F
:101C7C009E000800F10071082000EF008D319F25B7
:101C8C008E312000C601C60A08000C3026009E00CA
:101C9C009C019D0125001F08FC3902389F0008009B
:101CAC000030F3009030F4006B30F5000130F6009A
:101CBC0001308E31BD268E3108000130F0007008E5
:101CCC002000C5076F084502031C6D2E6E2E702E6A
:101CDC00C501C60108000B1120003C089500220824
:101CEC00230403197A2E7B2E802E23088A002208C7
:101CFC000A008E3108008D31B3258E318A2E1F18C3
:101D0C00882E892E8A2E8F2E23009F1F8E2E8F2E8B
:101D1C00852E9F1B922E932E812E080087318427AF
:101D2C008E31003A031D9B2E9C2EA52E8D318B25BA
:101D3C008E31891CA22EA32EA52E0130A62E00308A
:101D4C000800F6007408F7007608F800F901B62EC2
:101D5C00770887315E278E310130F5007508F90759
:101D6C0078087902031CBB2EBC2EAE2E0800F7009F
:101D7C0074082000AF007308AE007708C70076081F
:101D8C00B1007508B0008D31A3258E318D31BD2584
:101D9C008E318E3113268E3108007C08A83E8600C9
:101DAC0087012300190881000130F0007008FC073E
:101DBC0008307C02031CE32EE42EE52EFC010130DE
:101DCC00F00070082000BE070800F800F101F10ACD
:101DDC0078088431C8248E31023A031DF62EF72E72
:101DEC00F92E0030042F78083F398331D7238E31F8
:101DFC007806031D022F032FF72E01300800F70081
:101E0C007708F600122F760886008701710881008A
:101E1C000130F5007508F6070130F3020030F43B91
:101E2C00730A031D1D2F740A031D1D2F1E2F092F4E
:101E3C0008007208FF3EF400FF30733DF5003830A7
:101E4C0020009500B401A001A101853132258F310C
:101E5C00750820002102031D352F74082002031C75
:101E6C00382F392F2B2F08008B130130F200003044
:101E7C00F3008F311F278F310130F2000030F30057
:101E8C008F311F278F318D31C7258F310130F200F3
:101E9C000030F3008F311F278F318B1708008B1305
:101EAC000130F2000030F3008F311F278F310130E9
:101EBC00F2000030F3008F311F278F318D31C72591
:101ECC008F310130F2000030F3008F311F278F313A
:101EDC008B170800220090018C018D018E010830B7
:101EEC0021009000EF308C00CD308D00CF308E0073
:101EFC0023008D0137308C002400900108308D00B8
:101F0C002100951322009D01080021001508C039FD
:101F1C00143895000630200095000630BC003C08B3
:101F2C008D31C2258F318D3194258F310B118B164C
:101F3C008730F1000D30F2008D31EB258F31080028
:101F4C00FA00200050083F39F9005130F1000830F8
:101F5C00F2000030F3007A088731AA278F31003065
:101F6C00F100F2000D30F3000030F40050308F31EE
:101F7C0005278F31790808008F3170278F31873111
:101F8C00F4278F318D31AF258F318E3136268F313D
:101F9C008E314B268F318E311B268F318F318B2713
:101FAC008F3186312C268F318E3156268F31080099
:101FBC000830200040020318E42FE52FFD2F4108C4
:101FCC00B03E86008701010823009A000130F00022
:101FDC0070082000C10708304102031CF62FF72FB0
:101FEC00F82FC1010130F0007008C007FF2F21004D
:0C1FFC0011120800013401340834B8341C
:020000040001F9
:04000E00E43FFF1FAD
:00000001FF
