:0400000080313828EB
:100008007E1480318B1E09280A2812280B1D0D2802
:100018000E28122884312924803136280B1F1528F0
:10002800162836282100111E1A281B2826282000E9
:10003800111E1F28202826283D088A003C080A008F
:10004800803136282100911E2A282B2836282000A6
:10005800911E2F28302836283B088A003A080A00C3
:10006800803136287E10090080313A288431E8240E
:100078008031ED00FC0120308400003085004630DE
:1000880084318F248031A030840000308500103006
:1000980084318F2480317E1020008131A4292000F2
:1000A800E6006608E800E901EA01EA0AD801D80A88
:1000B80022008E160E128431952480310130F20010
:1000C8000030F30083318223803120006808F40077
:1000D80000308331EA238031F4010C308331EA2384
:1000E800803120006808F40001308331EA23803130
:1000F800F40105308331EA2380316430F2000030A6
:10010800F3008331822380312000E7010130FA00B7
:100118007A08E9070130FA007A08EA076808F40063
:1001280069088331EA238031F401200069080C3C16
:100138008331EA23803120006808F4006A0883319B
:10014800EA238031F40120006A08063C8331EA235F
:1001580080316430F2000030F30083318223803133
:100168000130FA007A082000E70704306702031C10
:10017800BE28BF288A280630EA006808F4000C3038
:100188008331EA238031F40100308331EA2380315E
:1001980020006808F40006308331EA238031F40136
:1001A80000308331EA238031FA30F2000030F30066
:1001B8008331822380318431952480310130F200EB
:1001C8000030F30083318223803108002000D801F9
:1001D800D80A22008E160E128431952480310130FF
:1001E800F2000030F300833182238031FA3082310B
:1001F800A5228031FA30F2000030F30083318223E7
:100208008031FA308231CF228031FA30F20000306A
:10021800F300833182238031FA30823175228031B4
:10022800FA30F2000030F3008331822380318431C8
:10023800952480310130F2000030F30083318223AD
:100248008031FA3083311F23803184319524803105
:10025800FA30F2000030F30083318223803120002D
:10026800D801D80A22008E120E16FA3084316B2477
:100278008031E830F2000330F3008331822380318B
:10028800843195248031FA30F2000030F300833154
:100298008223803108002000911C532954294F29BA
:1002A8003930F10071089A0791100130F100710896
:1002B800C7070130F1007108C6070A304602031C5F
:1002C800662967296C29C6010130B0070030B13DA5
:1002D80032304702031C712972297729C70101307E
:1002E800F1007108C50732304502031C7C297D29BD
:1002F8008229C5010130F1007108C4075808031D9F
:100308008629872992290D198A298B298F29220064
:100318008E160E12922922008E120E1620008C1DA7
:10032800962997299E29C201C20A22008D140D160A
:100338008D16A329C20122008D100D128D120800FE
:100348008331662381318431162481318B130B1359
:100358000130F2000030F300833182238131013013
:10036800F2000030F30083318223813184319524F7
:1003780081310130F2000030F30083318223813172
:10038800FA308031EA208131F430F2000130F30094
:100398008331822381312000EC01FA3080315320EF
:1003A8008131FA30F2000030F30083318223813149
:1003B800FA30F2000030F300833182238131FA30C1
:1003C800F2000030F30083318223813101302000B4
:1003D800EB006B08EC0705306C02031CF429F529C7
:1003E800D129C42980313828210091123C30F100EC
:1003F8000230F2008431A7248131210011124430E7
:10040800F1000330F2008431A12481311930230036
:100418009F0090309D0024309E00FF309B000230EA
:100428009C00EB30F1000430F2008431B3248131B8
:10043800DA30F1000430F2008431AD248131DE304D
:10044800F1000430F2008431B92481312000C9015F
:10045800CE01CD010830CC00FC01CB01CA0121003E
:1004680091168431E92481318431E52481310800F1
:100478007C08203E86008701810123001D1D452A36
:10048800462A512A7C08203E8600870181142000D4
:1004980039088A0038080A00823123009D1C552A31
:1004A800562A612A7C08203E860087010115200013
:1004B80037088A0036080A0082317C08203E860008
:1004C800870101080319692A6A2A712A2000350858
:1004D8008A0034080A008231742A8331D223823197
:1004E80008002000E6006608E700E801E901F401D9
:1004F8000C308331EA2382310130FA007A08200077
:10050800E8076708F40068088331EA238231F401B8
:1005180020006808063C8331EA2382314B30F20020
:100528000030F3008331822382310130FA007A08E7
:100538002000E90706306902031CA32AA42A7B2AA3
:1005480008002000E6006608E700E801E90101303C
:10055800FA007A08E8076708F40068088331EA2394
:100568008231F401200068080C3C8331EA2382318F
:100578004B30F2000030F3008331822382310130A6
:10058800FA007A082000E9070C306902031CCD2A1A
:10059800CE2AAB2A08002000E6006608E700E8013A
:1005A800E9010130FA007A08E8076708F4006808EA
:1005B8000C3C8331EA238231F4012000680883313E
:1005C800EA2382314B30F2000030F300833182237A
:1005D80082310130FA007A082000E9070C306902FC
:1005E800031CF72AF82AD52A0800F1008030F30006
:1005F8007108F20028001D08F63E9C007208730579
:100608000319072B082B0C2B063026009C000F2BF8
:10061800033026009C002000931D132B142B0F2B56
:1006280093117336F3007308031D1B2B1C2B022B2D
:1006380026009C0108002000E600E701E8012000F0
:100648006708F40012308331EA2383310C30F2005A
:100658000030F30083318223833101302000E70723
:100668000030E83D6808803AFA0080307A02031DBD
:100678003F2BFA306702031C422B432B232B080025
:10068800083020004C0203184A2B4B2B632B4D08D3
:10069800283E86008701010823009A000130F000F7
:1006A80070082000CD0708304D02031C5C2B5D2B21
:1006B8005E2BCD010130F0007008CC07652B2100BE
:1006C800111208008331B8238331843154248331D3
:1006D8008431D224833184317524833184317F2459
:1006E800833184316024833183319D238331813187
:1006F800F821833184314724833108007208FF3E92
:10070800F400FF30733DF500383020009500C60135
:10071800B001B10181314F218331750820003102C8
:10072800031D982B74083002031C9B2B9C2B8E2BCB
:10073800080021001508C03914389500063020003B
:1007480095000630C80048088431BF2483318431BD
:10075800E22483310B118B16EA30F1000430F200E9
:1007680084319B2483310800220090018C018D0183
:100778008E01083021009000EF308C00CD308D00C4
:100788008F308E0023008D0137308C0024009001BB
:100798008D012100951722009D0108007C08A03ECC
:1007A800860087012300190881000130F0007008D5
:1007B800FC0708307C02031CE22BE32BE42BFC0132
:1007C8000130F00070082000CA070800F60074081D
:1007D800F7007608F800F901F92B77088231F92239
:1007E80083310130F5007508F90778087902031C90
:1007F800FE2BFF2BF12B0800F70074082000BF0028
:100808007308BE007708D3007608C1007508C000D9
:100818008431D62484318431C424843184318724BA
:10082800843108008431C92484311F2C1F181D2CE1
:100838001E2C1F2C242C23009F1F232C242C1A2C05
:100848009F1B272C282C162C08000B112000480869
:100858009500320833040319322C332C382C330812
:100868008A0032080A00843108000130F00070085C
:100878002000D1076D085102031C432C442C462C40
:10088800D101D2010800CE30F3008430F4000030EA
:10089800F5000030F600013084310024843108006E
:1008A80070302100990098012200960121001A1F3A
:1008B8005E2C5F2C5A2C08000C3026009E009C01F0
:1008C8009D0125001F08FC3902389F000800FA0026
:1008D8007A08FB007B08F40012308331EA23843164
:1008E8000800273028009D009C0120009311043047
:1008F80028009E000800633020009B009A01911098
:100908003C309C0008003930F1000430F20084319A
:100918009B2484310800640080010131890B902CEC
:100928000034F40112308331EA238431080072085C
:100938002000B3007108B200080072082000BD0052
:100948007108BC00080072082000BB007108BA00DA
:10095800080072082000B7007108B6000800720885
:100968002000B9007108B800080072082000B5001E
:100978007108B4000800F100710820009500080013
:1009880023001D1621009116080023009F131F1431
:100998009F140800013401340834A83416302100AB
:1009A800970008002000D101D201080023001D1281
:1009B8001D1608008331D223843108002000150851
:1009C800080023001E0808000F340800080008006B
:020000040001F9
:08000000FF3FFF3FFF3FFF3F00
:04000E00E43FFF1FAD
:00000001FF
