:020000040000FA
:08000000803102288731F52F41
:10032A000800080022008D140C14080022000D1287
:10033A008D12080022000D168D16080022008D105D
:10034A000C10080016302100970008006400800194
:10035A000131890BAC290034C73020009B009A0177
:10036A0091101C309C000800F9007908FA007A08FC
:10037A00F30012308231042281310800273028002C
:10038A009D009C0120009311043028009E00080063
:10039A000C3026009E009C019D0125001F08FC3997
:1003AA0002389F000800703021009900980122004D
:1003BA00960121001A1FE229E329DE2908000230EA
:1003CA00F1000030F20082311A228131F301123039
:1003DA00823104228131080082317B2281318131CC
:1003EA00D82181318131A72181318131C3218131E4
:1003FA008131CD2181318131B12181310800F5006E
:10040A007308F6007508F700F801132A7608823196
:10041A00962282310130F4007408F80777087802CE
:10042A00031C182A192A0B2A08007208F4007108FA
:10043A00F3002000A901A001A10184311B2482310B
:10044A00740820002102031D2C2A73082002031CB1
:10045A002F2A302A222A080020000D19352A362A86
:10046A003A2A22008E160E123D2A22008E120E16EB
:10047A000230F1000030F20082311A228231FF305C
:10048A008131B9218231080020000D194D2A4E2AE6
:10049A00522A22008E160E12552A22008E120E168B
:1004AA000230F1000030F20082311A228231193012
:1004BA008131B9218231080020008E1C652A662A02
:1004CA00692AAA01AA0A6A2AAA010C1F6D2A6E2A97
:1004DA00712AAB01AB0A722AAB018E1D752A762AE4
:1004EA00792AAD01AD0A7A2AAD01080022009001ED
:1004FA008C018D018E01083021009000EE308C00B5
:10050A00CD308D00CF308E0023008D0127308C0036
:10051A002400900108308D002100951322009D01CE
:10052A000800F0008030F2007008F10028001D0871
:10053A00F63E9C00710872050319A42AA52AA92A65
:10054A00063026009C00AC2A033026009C002000BE
:10055A00931DB02AB12AAC2A93117236F20072089E
:10056A00031DB82AB92A9F2A26009C010800FA000E
:10057A007A08FB00FC01FD010130F9007908FC074B
:10058A007B08F3007C08823104228231F3017C0863
:10059A000C3C823104228231F3010630823104227A
:1005AA008231F430F1000130F20082311A228231B4
:1005BA000130F9007908FD070C307D02031CE62A98
:1005CA00E72AC12A0800FA007A08FB00FC01FD01AB
:1005DA007B08F3000C308231042282310130F900A9
:1005EA007908FC077B08F3007C08823104228231F7
:1005FA00F3017C08063C823104228231F430F10096
:10060A000130F20082311A2282310130F900790870
:10061A00FD0706307D02031C132B142BED2A08005C
:10062A00FA00FB01FC017B08F3001230823104223C
:10063A0083310C302000A2000030A3002B2B0130A4
:10064A00F1000030F20082311A2283310130200099
:10065A00A2020030A33B220A031D382B230A0319E6
:10066A00372B382B3D2B2F0803193C2B3D2B242BE2
:10067A000130FB070030FC3D7C08803AF9008030ED
:10068A007902031D4A2BFA307B02031C4D2B4E2B99
:10069A00182B0800FA007A08FB00FC01FD01013062
:1006AA00F9007908FC077B08F3007C080C3C8231CE
:1006BA0004228331F3017C08823104228331F3015D
:1006CA0006308231042283314B302000A2000030F0
:1006DA00A300762B0130F1000030F20082311A2299
:1006EA00833101302000A2020030A33B220A031DFD
:1006FA00832B230A0319822B832B882B2F08031998
:10070A00872B882B6F2B0130F9007908FD070C30F5
:10071A007D02031C912B922B542B0800FA007A08B5
:10072A00FB00FC01FD010130F9007908FC077B0898
:10073A00F3007C08823104228331F3017C080C3CEB
:10074A00823104228331F30106308231042283315B
:10075A004B302000A2000030A300BA2B0130F10078
:10076A000030F20082311A22833101302000A202C5
:10077A000030A33B220A031DC72B230A0319C62BE9
:10078A00C72BCC2B2F080319CB2BCC2BB32B013027
:10079A00F9007908FD070C307D02031CD52BD62BF6
:1007AA00982B0800FA007A08FB00FC01FD01F3010E
:1007BA000C308231042283310130F9007908FC07B8
:1007CA007B08F3007C08823104228331F3017C0820
:1007DA00063C8231042283314B302000A2000030D3
:1007EA00A300FE2B0130F1000030F20082311A2200
:1007FA00833101302000A2020030A33B220A031DEC
:10080A000B2C230A03190A2C0B2C102C2F08031962
:10081A000F2C102CF72B0130F9007908FD07063050
:10082A007D02031C192C1A2CDC2B08002000911CB9
:10083A001F2C202C1B2C91100130F0007008A907E6
:10084A000A302902031C2A2C2B2C3A2CA90101302C
:10085A00A0070030A13D240825040319352C362CA5
:10086A003A2C0130A4020030A53B8C1D3D2C3E2CB5
:10087A00432CAE01AE0A22008D14462CAE01220092
:10088A008D1020000E1C4A2C4B2C4E2CA601A60AB9
:10089A004F2CA6010E1D522C532C562CAF01AF0A19
:1008AA00572CAF018E1D5A2C5B2C5F2C22000D1683
:1008BA008D16622C22000D128D1208002000911C48
:1008CA00672C682C632C91100130F0007008A9077E
:1008DA000130F0007008A8070A302902031C762CA0
:1008EA00772C7C2CA9010130A0070030A13D3230C1
:1008FA002802031C812C822C872CA8010130F000CD
:10090A007008A70732302702031C8C2C8D2C922CDE
:10091A00A7010130F0007008B0078C1D952C962CA9
:10092A00A72C2E08031D9A2C9B2CA72C03303102CE
:10093A000318A02CA12CA62C0130F0007008B107D6
:10094A00A72CB1018C1DAA2CAB2CAE2CAE01AE0A81
:10095A00AF2CAE0108008131F12184310230F1005F
:10096A000030F20082311A2284318131E42184314B
:10097A0081319621843184311B24843120002F0354
:10098A00031DC82CC92CCD2C19308631EC26843194
:10099A0020002E03031DD22CD32CD72C8131972172
:1009AA008431DA2C8131A321843120002D03031DE7
:1009BA00DF2CE02CE42C81319F218431E72C81311A
:1009CA009B218431200024082504031DED2CEE2CE4
:1009DA00F72C2C03031DF22CF32CF72CFF30853156
:1009EA00FD258431200024082504031DFD2CFE2C3E
:1009FA00C02C82316122843120002B03031D062D75
:100A0A00072D0B2D823131228431C02C2A03031D7C
:100A1A000F2D102D142D823149228431C02C8131A1
:100A2A00E4218431C02C803102282000B201B301B4
:100A3A0022000D168D16E92D84316324853120009C
:100A4A000E1D282D292D2D2D22008E160E12302D29
:100A5A0022008E120E1620003108031D352D362D68
:100A6A00522D3108330603193B2D3C2D522DB3016B
:100A7A0022000D168D168D108131E421853120005A
:100A8A00B0014A2D843163248531023020003002BE
:100A9A000318502D512D472DBD2D3103031D562D01
:100AAA00572D762D3108330603195C2D5D2D762DD1
:100ABA00B301B30A22000D168D16813197218531B3
:100ACA008131E42185312000B0016E2D8431632407
:100ADA0085310230200030020318742D752D6B2DDC
:100AEA00BD2D02303106031D7B2D7C2D9A2D310838
:100AFA0033060319812D822D9A2D0230B30022006C
:100B0A000D128D128D1019308131B92185312000D5
:100B1A00B001922D843163248531023020003002E5
:100B2A000318982D992D8F2DBD2D03303106031DE5
:100B3A009F2DA02DBD2D310833060319A52DA62DF5
:100B4A00BD2D0330B30022000D128D128D10FF301F
:100B5A008131B92185312000B001B62D8431632459
:100B6A0085310230200030020318BC2DBD2DB32D73
:100B7A000E1DC02DC12DD42D3208031DC52DC62D25
:100B8A00D42DB201B20A22008E160E12053082311D
:100B9A00BC22853105308231E8228531E92D0E19D2
:100BAA00D72DD82DE92D3203031DDC2DDD2DE92D9E
:100BBA00B20122008E120E1605308231BC22853116
:100BCA0005308231E822853120000D19ED2DEE2DF8
:100BDA00212D22000D128D128D108131E4218531D3
:100BEA000130F1000030F20082311A22853108000A
:100BFA002000AC0122008E160E120230F1000030E5
:100C0A00F20082311A22853120002F08031D0E2E90
:100C1A000F2E142EFF30833193238531162E220096
:100C2A008E12FA302000A2000030A300232E0130D9
:100C3A00F1000030F20082311A22853101302000A1
:100C4A00A2020030A33B220A031D302E230A0319F5
:100C5A002F2E302E352E2F080319342E352E1C2E0A
:100C6A002F08031D392E3A2E3F2EFF3083314F2392
:100C7A008531412E22008E12FA302000A200003067
:100C8A00A3004E2E0130F1000030F20082311A2208
:100C9A00853101302000A2020030A33B220A031D45
:100CAA005B2E230A03195A2E5B2E602E2F08031976
:100CBA005F2E602E472E2F08031D642E652E6A2E86
:100CCA00FF308331D72385316C2E22008E12FA3001
:100CDA002000A2000030A300792E0130F10000307C
:100CEA00F20082311A22853101302000A20200303E
:100CFA00A33B220A031D862E230A0319852E862E5C
:100D0A008B2E2F0803198A2E8B2E722E8131E42105
:100D1A0085310230F1000030F20082311A22853129
:100D2A0020002F08031D9A2E9B2EA02EFF30833100
:100D3A0015238531A22E22008E128131E4218531BC
:100D4A000230F1000030F20082311A22853120008F
:100D5A002F08031DB12EB22EBA2E22008E120E16A5
:100D6A00FF308131B9218531BD2E22008E120E123B
:100D7A0098302000A2003A30A300CA2E0130F100B8
:100D8A000030F20082311A22853101302000A2029D
:100D9A000030A33B220A031DD72E230A0319D62E9D
:100DAA00D72EDC2E2F080319DB2EDC2EC32E813121
:100DBA00E42185310130F1000030F20082311A223B
:100DCA00853158302000A4000230A5000800200018
:100DDA00B2003208B400B501B601B60A22008E1676
:100DEA000E128131E42186310130F1000030F20027
:100DFA0082311A22863120002F03031D052F062F68
:100E0A003C2F3408F3000030823104228631F3018A
:100E1A000C3082310422863120003408F30001307C
:100E2A00823104228631F30105308231042286316F
:100E3A0028302000A2000030A3002A2F0130F10040
:100E4A000030F20082311A22863101302000A202DB
:100E5A000030A33B220A031D372F230A0319362F1A
:100E6A00372F3C2F2F0303193B2F3C2F232F2F0300
:100E7A00031D402F412F8E2FB3010130F90079084D
:100E8A00B5070130F9007908B6073408F3003508C8
:100E9A00823104228631F301200035080C3C82316C
:100EAA000422863120003408F300360882310422F5
:100EBA008631F30120003608063C8231042286314D
:100ECA0028302000A2000030A300722F0130F10068
:100EDA000030F20082311A22863101302000A2024B
:100EEA000030A33B220A031D7F2F230A03197E2FFA
:100EFA007F2F842F2F030319832F842F6B2F013009
:100F0A00F9007908B30704303302031C8D2F8E2FA2
:100F1A00422F2F03031D922F932FCF2F0630B60097
:100F2A003408F3000C30823104228631F301003098
:100F3A0082310422863120003408F30006308231DF
:100F4A0004228631F3010030823104228631903046
:100F5A002000A2000130A300B92F0130F1000030B7
:100F6A00F20082311A22863120002308FA00A203F5
:100F7A00220AF9000319A30300307A020230031986
:100F8A007902031CC92FCA2FCF2F2F030319CE2F83
:100F9A00CF2FB22F22082304031DD42FD52FDF2FE2
:100FAA00AC01AC0ADF2F0130F1000030F2008231CF
:100FBA001A22863120002F030319E42FE52FD82F98
:100FCA008131E42186310130F1000030F2008231B2
:100FDA001A22863158302000A4000230A5000800E9
:100FEA00203084000030850012308131AB218731F6
:060FFA0020008431B02C40
:020000040001F9
:04000E00E43FFF1FAD
:00000001FF
