:020000040000FA
:08000000803102288731F22F44
:1006AC000800080020001A08080020001C1508008B
:1006BC0020001C1108002800150808002800171538
:1006CC00080028001711080028001C080800280042
:1006DC001E15080028001E11080016302100970076
:1006EC00080022008E120E12080022008E160E1226
:1006FC00080022008E120E16080022000D128D1218
:10070C00080022000D168D16080022008D100C100A
:10071C00080022008D140C140800F0007008200052
:10072C009B000800F000700820009A000800F00000
:10073C007008280096000800F0007008280095004A
:10074C000800F000700828009D000800F0007008F8
:10075C0028009C000800F301123084315E248331A0
:10076C000800833177238331833157238331080089
:10077C00F93020009B009A0191103D309C0008003C
:10078C0084313B248331FF308331EA2383310800E9
:10079C0084313B24833119308331EA2383310800BF
:1007AC00F930280096009501200093103D30280068
:1007BC0097000800273028009D009C012000931111
:1007CC00043028009E000800F9007908FA007A0825
:1007DC00F300123084315E24833108000C30260083
:1007EC009E009C019D0125001F08FC3902389F00CA
:1007FC000800703021009900980122009601210018
:10080C001A1F092C0A2C052C080000302000911806
:10081C000130F00070080319142C152C162C9110B3
:10082C0008000030200093180130F0007008031904
:10083C00202C212C222C931008000030200093191E
:10084C000130F000700803192C2C2D2C2E2C931138
:10085C0008008431482484318331B72384318531B5
:10086C009C258431352C8031022820000D193F2C19
:10087C00402C442C22008E160E12472C22008E1275
:10088C000E1608008431742484318331FF238431A3
:10089C008331732384318331E02384318331D62334
:1008AC0084318331BE2384318331F42384310800B5
:1008BC00F5007308F6007508F700F8016D2C760842
:1008CC0084318F2484310130F4007408F8077708E0
:1008DC007802031C722C732C652C080022009001EA
:1008EC008C018D018E01083021009000EE308C00BF
:1008FC00CD308D00CF308E0023008D0127308C0041
:10090C002400900108308D002100951322009D01D8
:10091C000800F0008030F2007008F10028001D087B
:10092C00F63E9C007108720503199D2C9E2CA22C7E
:10093C00063026009C00A52C033026009C002000CD
:10094C00931DA92CAA2CA52C93117236F2007208B7
:10095C00031DB12CB22C982C26009C010800FA0027
:10096C00FB01FB0A2000291CBC2CBD2CC12C8331A3
:10097C0077238431E12C7B08F300123084315E2420
:10098C0084312000A401A501CE2C8531DD258431D4
:10099C000030200025020C3003192402031CD72C34
:1009AC00D82CCB2C0130F9007908FB077B0A031DEE
:1009BC00E02CE12CB82C0800FA007A08FB00FC01B2
:1009CC00FD010130F9007908FC077B08F3007C0875
:1009DC000C3C84315E248431F3017C0884315E2428
:1009EC008431F301063084315E2484312000A4016B
:1009FC00A5010C2D8531DD2584312000291C072D06
:100A0C00082D0C2D833177238431152D00302502D0
:100A1C004B3003192402031C142D152D002D01300D
:100A2C00F9007908FD070C307D02031C1E2D1F2DCB
:100A3C00E72C0800FA007A08FB00FC01FD010130EC
:100A4C00F9007908FC077B08F3007C0884315E24EC
:100A5C008531F3017C080C3C84315E248531F30133
:100A6C00063084315E2485312000A401A5014A2D75
:100A7C008531DD2585312000291C452D462D4A2D3B
:100A8C00833177238531532D003025024B300319E8
:100A9C002402031C522D532D3E2D0130F9007908F0
:100AAC00FD070C307D02031C5C2D5D2D252D0800EF
:100ABC00FA007A08FB00FC01FD01F3010C308431D3
:100ACC005E2485310130F9007908FC077B08F300BE
:100ADC007C0884315E248531F3017C08063C84312A
:100AEC005E2485312000A401A501882D8531DD25EA
:100AFC0085312000291C832D842D882D833177236B
:100B0C008531912D003025024B3003192402031C32
:100B1C00902D912D7C2D0130F9007908FD070630C0
:100B2C007D02031C9A2D9B2D632D08008531DD253C
:100B3C0085312000291CA32DA42DAB2DFF3087312E
:100B4C00062785312000A401A501A81CAE2DAF2DD0
:100B5C00BA2D281CB22DB32DBA2DFF308631452667
:100B6C0085312000A401A501A81CBD2DBE2DDC2DB6
:100B7C0000302502643003192402031CC62DC72D36
:100B8C00DC2DA401A501291DCC2DCD2DD12D83311A
:100B9C00C6238531DC2DA91CD42DD52DD92D83311F
:100BAC00CE238531DC2D833177238531080020005D
:100BBC00931CE12DE22DDD2D93100130F000700817
:100BCC00A7070130A4070030A53D0130A207003073
:100BDC00A33D200821040319F42DF52DFB2D013024
:100BEC00A0020030A13BA810FC2DA8140530270250
:100BFC00031C012E022E2D2EA701F1018E1C072E97
:100C0C00082E092EF1140C1F0C2E0D2E0E2E711504
:100C1C000E1D112E122E132E71148E1D162E172E24
:100C2C00182EF1168C1D1B2E1C2E1D2E71160E1C33
:100C3C00202E212E222EF115260871060319272E9F
:100C4C00282E2B2E7108A6002D2E7108A900A91E86
:100C5C00302E312E352E22000D168D16382E2200F8
:100C6C000D128D122000291E3C2E3D2E412E2200ED
:100C7C008D140C14442E22008D100C100800200032
:100C8C002810A201A30183317B238631200029186F
:100C9C00502E512E562EFF30853120258631592E5F
:100CAC008331772386312000A401A501692E85317B
:100CBC00DD2586312000291C642E652E692E83319A
:100CCC0077238631722E00302502FA300319240264
:100CDC00031C712E722E5D2E20002918762E772E75
:100CEC007C2EFF308431E22486317F2E83317723B2
:100CFC0086312000A401A5018F2E8531DD2586319A
:100D0C002000291C8A2E8B2E8F2E8331772386313F
:100D1C00982E00302502FA3003192402031C972E5A
:100D2C00982E832E200029189C2E9D2EA22EFF304B
:100D3C0085315E258631A52E8331772386312000BF
:100D4C00A401A501B52E8531DD2586312000291C95
:100D5C00B02EB12EB52E833177238631BE2E0030C6
:100D6C002502FA3003192402031CBD2EBE2EA92E17
:100D7C0020002918C22EC32EC82EFF308431B52472
:100D8C008631CB2E8331772386318331772386319D
:100D9C0020002918D22ED32EDB2E83317F238631CF
:100DAC00FF308331EA238631F32E8331772386316A
:100DBC00F32E8531DD25863120002918E62EE72E0D
:100DCC00EF2E2919EA2EEB2EEF2EA91CEE2EEF2E6C
:100DDC00F32E833177238631FD2E3A302000230207
:100DEC00983003192202031CFC2EFD2EDF2E8331BA
:100DFC007723863158302000A0000230A100080073
:100E0C002000AA002A08AC00AD01AE01AE0AA20176
:100E1C00A30183317B2387312000291C162F172F28
:100E2C004C2F2C08F300003084315E248731F30101
:100E3C000C3084315E24873120002C08F300013003
:100E4C0084315E248731F301053084315E2487318F
:100E5C002000A401A501432F8531DD258731200019
:100E6C002918392F3A2F432F833177238731583064
:100E7C002000A0000230A1004C2F003025022830A9
:100E8C0003192402031C4B2F4C2F322F291C4F2FDC
:100E9C00502F9C2FAB010130F9007908AD070130C0
:100EAC00F9007908AE072C08F3002D0884315E2474
:100EBC008731F30120002D080C3C84315E248731EE
:100ECC0020002C08F3002E0884315E248731F301B6
:100EDC0020002E08063C84315E2487312000A401BA
:100EEC00A501892F8531DD258731200029187F2F19
:100EFC00802F892F83317723873158302000A00031
:100F0C000230A100922F0030250228300319240250
:100F1C00031C912F922F782F0130F9007908AB0721
:100F2C0004302B02031C9B2F9C2F512F291C9F2F0D
:100F3C00A02FD72F0630AE002C08F3000C308431D4
:100F4C005E248731F301003084315E248731200028
:100F5C002C08F300063084315E248731F301003015
:100F6C0084315E2487312000A401A501CE2F853168
:100F7C00DD25873120002918C42FC52FCE2F8331B2
:100F8C007723873158302000A0000230A100D72FE2
:100F9C0001302502903003192402031CD62FD72FC1
:100FAC00BD2F02302302583003192202031CDF2FFD
:100FBC00E02FF12F28148531DD25873120002918E9
:100FCC00E82FE92FE12F8331772387315830200028
:100FDC00A0000230A10008002000A001A101A20184
:100FEC00A301A401A501A601A701A801A901200044
:040FFC0084312F2CE1
:020000040001F9
:04000E00C43FFF1FCD
:00000001FF
