:0400000080313828EB
:100008007E1480318B1E09280A2812280B1D0D2802
:100018000E2812288531F025803136280B1F152827
:10002800162836282100111E1A281B2826282000E9
:10003800111E1F28202826283B088A003A080A0093
:10004800803136282100911E2A282B2836282000A6
:10005800911E2F283028362839088A0038080A00C7
:10006800803136287E10090080313A288631D3261F
:100078008031E800FB01FC0120308400003085005D
:100088003C30863154268031A03084000030850011
:1000980010308631542680317E10200086310F2E94
:1000A80020004B03031D59285A2856294908031DC7
:1000B8005E285F2856290830C7005629863143260E
:1000C8008031003A031969286A287E290F30863161
:1000D8002A2680312000CB01CB0AC701C70A22009B
:1000E8000E167E29863143268031003A03197D2871
:1000F8007E287E298531CA258031013A031D85284D
:1001080086288A2802302000C7008D280830200061
:10011800C70022000E127E29863143268031003A1C
:100128000319972898287E29843179248031553AF3
:10013800031D9F28A028A42803302000C7007E297B
:1001480008302000C7007E29863143268031003AD6
:100158000319AF28B0287E29843179248031200002
:10016800CF004F0885315B258031003A031DBD283B
:10017800BE28BF28A428F101F10A20004F088231C7
:10018800D42280312000D9005903031DCC28CD2862
:10019800D8280230F1004F088231D4228031200063
:1001A800DA000430C7007E2986318D26803106307A
:1001B8002000C7007E29863143268031003A031982
:1001C800E628E7287E298431792480312000E5005B
:1001D8004608503E86008701650881005A08E500F8
:1001E800E601E51BE6030130E7006708C607660875
:1001F800803A803C031D022965084602031C052934
:1002080006297E292000C6010530C7007E298631CF
:1002180043268031003A0319122913297E29843193
:10022800792480312000D8004F08F1005030F200C6
:100238005A0884311E2480312000580603192529C4
:1002480026292729A4280730C7007E294F0883318B
:100258003E23803107302000C7003F088A003E084F
:100268000A00813186317E2680312000C601CB010B
:100278000030F100F2000D30F3000030F4004F3090
:1002880085314125803123009E1C4B294C29522958
:100298008631882680312000C7017E290930200058
:1002A800C7007E294708E500E6016608003A0319F9
:1002B8005E297E296508003A03196228013A031964
:1002C8007628033A03199028013A0319A828073A0F
:1002D8000319DF28013A03190B29033A03192A29BC
:1002E800013A031931290F3A03193629013A03193A
:1002F80047297E2908002000CE01CC015D308531D8
:100308000B2581312000DC00012A49305F060319E2
:100318008E298F29952951305F06031D9429952927
:100328009929F830CE054C14E5290A305F060319DF
:100338009E299F29AB2914305F060319A429A529F2
:10034800AB2912305F06031DAA29AB29B1294E0833
:10035800F8390138CE00CC14E5298C305F06031932
:10036800B629B729C32994305F060319BC29BD29CA
:10037800C329AC305F06031DC229C329C9294E0809
:10038800F8390338CE004C15AF294C305F06031DF1
:10039800CE29CF29D4294E08F8390238CE0097291A
:1003A8000B305F060319D929DA29E02913305F06D3
:1003B800031DDF29E029E5294E08F8390438CE0065
:1003C800C729DE1FE829E929EB29CE15CC155E1FC0
:1003D800EE29EF29F1294E17CC155E1EF429F529CF
:1003E800F7294E16CC16DE1EFA29FB29062ACE1648
:1003F8004C17062ACE01CC01062A5C08013A0319DB
:100408008929FE294C1C092A0A2A0E2A8631CA265D
:100418008131112A8631CD2681312000CC1C152A44
:10042800162A1A2A8631B22681311D2A8631B52626
:10043800813120004C1D212A222A262A8631B826FD
:100448008131292A8631BB2681312000CC1D2D2AF5
:100458002E2A322A8631C4268131352A8631C7268A
:1004680081312000CC1E392A3A2A3E2A8631BE26FE
:100478008131412A8631C126813120004C1F452A0D
:10048800462A4A2A8631AC2681314D2A8631AF2642
:1004980081310800F2007208F300F318542A562A32
:1004A8000130572A0030F10073185B2A5D2A0130A9
:1004B8005E2A00307106031D622A642A7317652AB2
:1004C80073137319682A6A2A01306B2A0030F10005
:1004D800731B6F2A712A0130722A00307106031DBE
:1004E800762A782A7317792A7313731A7C2A7E2A34
:1004F80001307F2A0030F100731B832A852A0130DE
:10050800862A00307106031D8A2A8C2A73178D2AC1
:100518007313F319902A922A0130932A0030F100BC
:10052800F318972A992A01309A2A00307106031D78
:100538009E2AA02AF317A12AF313731AA42AA62A1B
:100548000130A72A0030F100F31BAB2AAD2A013095
:10055800AE2A00307106031DB22AB42AF317B52A51
:10056800F313F31AB82ABA2A0130BB2A0030F10073
:10057800F31BBF2AC12A0130C22A00307106031DAD
:10058800C62AC82AF317C92AF3130310F31F031442
:100598000318CF2AD12AF317D22AF31373080800B5
:1005A800F40020003D08F7003C08F6003F30F20058
:1005B8007208F405F501032B760884007708850096
:1005C80000087406031DE92AEA2AEB2A2A2B0430BC
:1005D800F6070030F73D4A08FF3EF200FF300318E7
:1005E8000030F300750872067304031DFC2AFD2A07
:1005F800FF2A02303D2B0130F2007208F5074A0845
:100608007502031C082B092BE02A2A2B7608840084
:100618007708850000083D2B7708F3007608F2007C
:1006280001307207840073080318730A85000008F4
:100638003D2B7708F3007608F20002307207840039
:1006480073080318730A850000083D2B7108F2002F
:10065800F3017308003A0319322BFD2A7208003A95
:1006680003190A2B013A0319102B033A03191D2BFE
:10067800FD2A08002000E1003D08E4003C08E300F2
:100688003F30DF005F08E105E2015D2B630884006D
:100698006408850000086106031D532B542B552B55
:1006A800632B0430E3070030E43D0130DF005F08CE
:1006B800E2074A086202031C622B632B4A2B640878
:1006C800E0006308DF0001305F078400600803185A
:1006D800600A85000008D9006408E0006308DF00AC
:1006E80002305F07840060080318600A850000086C
:1006F800DA006408E0006308DF0003305F07840065
:1007080060080318600A85000008F1005A08F20022
:10071800F301F21BF303503084319F24833120000E
:100728004F08F1005030F2005A0884311E248331FA
:100738002000D8004F08F9005030FA005A088431D8
:10074800C4248331080021009112E530F100033000
:10075800F20086316626833121001112E930F1005A
:100768000430F200863160268331193023009F005F
:1007780090309D0024309E00FF309B0002309C008A
:10078800D530F1000630F200863172268331A4306C
:10079800F1000630F20086316C268331A830F10072
:1007A8000630F2008631782683312000C101C50168
:1007B800C4010830C300FC01FB01C20121009116ED
:1007C80008007C08203E86008701810123001D1D4A
:1007D800EE2BEF2BFA2B7C08203E86008701811434
:1007E800200037088A0036080A00833123009D1C40
:1007F800FE2BFF2B0A2C7C08203E86008701011562
:10080800200035088A0034080A0084317C08203E1C
:100818008600870101080319122C132C1A2C2000BA
:1008280033088A0032080A0084311D2C8531752569
:1008380083310800F5007108F300F4017308F7002C
:100848007408F800F601472C720886008701010831
:100858007707F70078080318780AF8000130F300E2
:100868007308F20701307802003003197702031C7D
:100878003E2C3F2C432CFF30F7020030F83B013070
:10088800F3007308F60775087602031C4C2C4D2CF0
:10089800282CF709F80977080800F2002000430817
:1008A8000319572C582C522C2100111A5C2C5D2C42
:1008B800612C720823009A00762C1112200045083A
:1008C800283E86008701720881000130F100710816
:1008D800C50708304502031C722C732C742CC50103
:1008E8000130C30221001116080020004208031934
:1008F8007E2C7F2C792C7B08203E860087010108FE
:10090800C1007B08A03E860087010108F200013083
:10091800F1007108FB0708307B02031C942C952C0E
:10092800962CFB012100911201302000C202210007
:10093800911672080800F8007108F7007808F600A8
:10094800B72C7708860087010108F5000130F4000C
:100958007408F7077608860087017508810001305A
:10096800F4007408F6070130F2020030F33B720A13
:10097800031DC22C730A031DC22CC32CA52C08000E
:100988002000DD00DE01D72C5E087A07DC005C0859
:100998008600870101088431512484310130200008
:1009A800DC005C08DE075D085E02031CDC2CDD2C25
:1009B800C82C7908F1007A08F2005D0884311E24F9
:1009C80084318431512484310800083020004302E6
:1009D8000318EF2CF02C082D4408283E86008701C8
:1009E800010823009A000130F00070082000C407B5
:1009F80008304402031C012D022D032DC4010130CF
:100A0800F0007008C3070A2D210011120800FA002F
:100A180020004F083F39F9005030F1000830F2004B
:100A28000030F3007A0884319F2485310030F100CA
:100A3800F2000D30F3000030F4004F3085314125CD
:100A4800853179080800220090018C018D018E0102
:100A5800083021009000FF308C00C0308D00AF308E
:100A68008E0023008D013F308C00240090018D0101
:100A78002100951722009D010800F7007708F6006D
:100A88004E2D760886008701710881000130F50037
:100A98007508F6070130F3020030F43B730A031DB2
:100AA800592D740A031D592D5A2D452D0800F8009B
:100AB800F101F10A78088231D4228531023A031D06
:100AC800662D672D692D0030742D78083F398231E5
:100AD8004E2285317806031D722D732D672D013046
:100AE80008007C08A03E86008701230019088100C1
:100AF8000130F0007008FC0708307C02031C852DCB
:100B0800862D872DFC010130F00070082000C207F7
:100B18000800F70074082000BD007308BC007708BF
:100B2800CA007608BF007508BE0086317E2685316A
:100B380086318826853186314C268531080021008A
:100B48001508C03914389500063020009500063085
:100B5800C0000B118B16D430F1000630F20086313C
:100B68005A26853108008531272585318631372673
:100B780085318631A02685318531A325853183319C
:100B8800A723853186311D268531080084317924D3
:100B98008531003A031DD12DD22DDB2D8631D0268B
:100BA8008531891CD82DD92DDB2D0130DC2D003065
:100BB8000800863192268531E62D1F18E42DE52D93
:100BC800E62DEB2D23009F1FEA2DEB2DE12D9F1B1A
:100BD800EE2DEF2DDD2D08000B11200040089500AB
:100BE800300831040319F92DFA2DFF2D31088A0038
:100BF80030080A00853108000130F0007008200034
:100C0800C80768084802031C0A2E0B2E0E2E8631D0
:100C18009726863108008531B72586318531DD254F
:100C280086318B170B17803154208631172E80316F
:100C380038289C30F3008630F4007F30F50001300E
:100C4800F600013085318D2586310800F2007208E2
:100C58002000E8000030863183268631000020001D
:100C6800C901C90A080070302100990098012200C2
:100C7800960121001A1F412E422E3D2E0800200009
:100C88004208031D482E4A2E01304B2E0030080022
:100C98000030F1000630F20086315A26863108000D
:100CA800640080010131890B552E00347208200040
:100CB800B1007108B000080072082000BB0071087C
:100CC800BA00080072082000B9007108B8000800CE
:100CD80072082000B5007108B400080072082000EE
:100CE800B7007108B600080072082000B300710848
:100CF800B200080000002000C801C9010800F10086
:100D0800710820009500080023001D162100911687
:100D1800080023001D1221009112080023009F13D0
:100D28001F149F14080000002000C801C901080012
:100D3800013401340834A834163021009700080023
:100D480023001D121D1608008531752586310800FF
:100D580022000D14080022000D10080022008D1634
:100D6800080022008D12080022008D1508002200BC
:100D78008D11080022008D14080022008D10080033
:100D880022000D15080022000D11080022000D1682
:100D9800080022000D1208002000410808000A344B
:040DA8000800080037
:020000040001F9
:08000000FF3FFF3FFF3FFF3F00
:04000E00E43FFF1FAD
:00000001FF
