:020000040000FA
:08000000803102288731F52F41
:10069600080016302100970008006400800101312F
:1006A600890B512B0034C73020009B009A01911012
:1006B6001C309C000800F9007908FA007A08F3005B
:1006C60012308331BB2383310800273028009D0078
:1006D6009C0120009311043028009E0008000C3075
:1006E60026009E009C019D0125001F08FC3902384A
:1006F6009F000800703021009900980122009601A1
:1007060021001A1F872B882B832B08000230F1004B
:100716000030F2008331D1238331F301123083316B
:10072600BB238331080020000C1F9A2B9B2B9E2B8A
:10073600AB01AB0A9F2BAB018E1CA22BA32BA62BC6
:10074600AC01AC0AA72BAC01080084311824833114
:1007560083317D23833183314C2383318331682375
:1007660083318331722383318331562383310800E9
:10077600F5007308F6007508F700F801CA2B76082D
:100786008431332483310130F4007408F807770884
:100796007802031CCF2BD02BC22B08007208F40062
:1007A6007108F3002000AA01A001A10185315F258F
:1007B6008331740820002102031DE32B73082002F5
:1007C600031CE62BE72BD92B080020000D19EC2B78
:1007D600ED2BF12B22008E160E12F42B22008E1218
:1007E6000E160230F1000030F2008331D12383313E
:1007F600FF3083315E238331080020000D19042C5D
:10080600052C092C22008E160E120C2C22008E129C
:100816000E160230F1000030F2008331D12384310C
:10082600193083315E2384310800220090018C0147
:100836008D018E01083021009000EF308C00CD3004
:100846008D00CF308E0023008D0127308C002400D0
:10085600900108308D002100951322009D010800AB
:10086600F0008030F2007008F10028001D08F63E06
:100876009C00710872050319412C422C462C063047
:1008860026009C00492C033026009C002000931D66
:100896004D2C4E2C492C93117236F2007208031D12
:1008A600552C562C3C2C26009C010800FA00FB0116
:1008B600FC017B08F30012308331BB2384310C30FA
:1008C6002000A2000030A3006F2C0130F1000030A0
:1008D600F2008331D123843101302000A20200309E
:1008E600A33B220A031D7C2C230A03197B2C7C2C98
:1008F600812C2E080319802C812C682C0130FB07D3
:100906000030FC3D7C08803AF90080307902031DF6
:100916008E2CFA307B02031C912C922C5C2C080046
:10092600FA007A08FB00FC01FD010130F9007908A4
:10093600FC077B08F3007C080C3C8331BB23843125
:10094600F3017C088331BB238431F3010630833104
:10095600BB2384314B302000A2000030A300BA2C08
:100966000130F1000030F2008331D12384310130AF
:100976002000A2020030A33B220A031DC72C230A33
:100986000319C62CC72CCC2C2E080319CB2CCC2C27
:10099600B32C0130F9007908FD070C307D02031CE9
:1009A600D52CD62C982C0800FA007A08FB00FC01FE
:1009B600FD010130F9007908FC077B08F3007C088B
:1009C6008331BB238431F3017C080C3C8331BB2388
:1009D6008431F30106308331BB2384314B30200050
:1009E600A2000030A300FE2C0130F1000030F2001E
:1009F6008331D123843101302000A2020030A33B91
:100A0600220A031D0B2D230A03190A2D0B2D102D67
:100A16002E0803190F2D102DF72C0130F900790837
:100A2600FD070C307D02031C192D1A2DDC2C080045
:100A3600FA007A08FB00FC01FD01F3010C3083315A
:100A4600BB2385310130F9007908FC077B08F300E8
:100A56007C088331BB238531F3017C08063C833156
:100A6600BB2385314B302000A2000030A300422D6D
:100A76000130F1000030F2008331D123853101309D
:100A86002000A2020030A33B220A031D4F2D230A99
:100A960003194E2D4F2D542D2E080319532D542D69
:100AA6003B2D0130F9007908FD0706307D02031C55
:100AB6005D2D5E2D202D08002000911C632D642DD8
:100AC6005F2D91100130F0007008AA070A302A0243
:100AD600031C6E2D6F2D7E2DAA010130A00700305C
:100AE600A13D240825040319792D7A2D7E2D013088
:100AF600A4020030A53B8C1D812D822D872DA701D8
:100B0600A70A22008D148A2DA70122008D1020002D
:100B16000E1C8E2D8F2D922DA601A60A932DA601B1
:100B26000E1D962D972D9A2DAE01AE0A9B2DAE0168
:100B36008E1D9E2D9F2DA32D22000D168D16A62DE2
:100B460022000D128D1208008331A8238531023050
:100B5600F1000030F2008331D123853183318923BE
:100B6600853183314B23853185315F2585312000E1
:100B76002E03031DBF2DC02DC42D19308631EC2642
:100B86008531200024082504031DCA2DCB2DD42D24
:100B96002D03031DCF2DD02DD42DFF308531FD25FE
:100BA6008531200024082504031DDA2DDB2DE72DD1
:100BB60083319623853120002C03031DE32DE42D7C
:100BC600E72D8331E8238531200024082504031D01
:100BD600ED2DEE2DB72D83319623853120002B0385
:100BE600031DF62DF72DB72D843100248531B72D41
:100BF600803102282000AD0122008E160E1202302E
:100C0600F1000030F2008331D123853120002E0817
:100C1600031D0E2E0F2E142EFF308431D72485315E
:100C2600162E22008E12FA302000A2000030A300F9
:100C3600232E0130F1000030F2008331D1238531BB
:100C460001302000A2020030A33B220A031D302EF1
:100C5600230A03192F2E302E352E2E080319342E73
:100C6600352E1C2E2E08031D392E3A2E3F2EFF3010
:100C7600843193248531412E22008E12FA302000D1
:100C8600A2000030A3004E2E0130F1000030F20029
:100C96008331D123853101302000A2020030A33BED
:100CA600220A031D5B2E230A03195A2E5B2E602E81
:100CB6002E0803195F2E602E472E2E08031D642E64
:100CC600652E6A2EFF3085311B2585316C2E22005C
:100CD6008E12FA302000A2000030A300792E0130D7
:100CE600F1000030F2008331D1238531013020003C
:100CF600A2020030A33B220A031D862E230A0319F3
:100D0600852E862E8B2E2E0803198A2E8B2E722E5A
:100D16008331892385310230F1000030F2008331BE
:100D2600D123853120002E08031D9A2E9B2EA02E3E
:100D3600FF30843159248531A22E22008E12833150
:100D4600892385310230F1000030F2008331D1234E
:100D5600853120002E08031DB12EB22EBA2E220098
:100D66008E120E16FF3083315E238531BD2E220092
:100D76008E120E1298302000A2003A30A300CA2E1E
:100D86000130F1000030F2008331D123853101308A
:100D96002000A2020030A33B220A031DD72E230AFD
:100DA6000319D62ED72EDC2E2E080319DB2EDC2EA9
:100DB600C32E8331892385310130F1000030F200E2
:100DC6008331D123853158302000A4000230A5009C
:100DD60008002000B1003108B300B401B501B50A1E
:100DE60022008E160E128331892386310130F100DE
:100DF6000030F2008331D123863120002E03031DFB
:100E0600052F062F3C2F3308F30000308331BB2318
:100E16008631F3010C308331BB2386312000330841
:100E2600F30001308331BB238631F3010530833172
:100E3600BB23863128302000A2000030A3002A2FD1
:100E46000130F1000030F2008331D12386310130C8
:100E56002000A2020030A33B220A031D372F230ADB
:100E66000319362F372F3C2F2E0303193B2F3C2F08
:100E7600232F2E03031D402F412F8E2FB201013049
:100E8600F9007908B4070130F9007908B507330885
:100E9600F30034088331BB238631F3012000340884
:100EA6000C3C8331BB23863120003308F300350820
:100EB6008331BB238631F30120003508063C83319C
:100EC600BB23863128302000A2000030A300722FF9
:100ED6000130F1000030F2008331D1238631013038
:100EE6002000A2020030A33B220A031D7F2F230A03
:100EF60003197E2F7F2F842F2E030319832F842F10
:100F06006B2F0130F9007908B20704303202031C56
:100F16008D2F8E2F422F2E03031D922F932FCF2F0F
:100F26000630B5003308F3000C308331BB2386311D
:100F3600F30100308331BB23863120003308F300F0
:100F460006308331BB238631F30100308331BB2366
:100F5600863190302000A2000130A300B92F013065
:100F6600F1000030F2008331D123863120002308BE
:100F7600FA00A203220AF9000319A30300307A0239
:100F8600023003197902031CC92FCA2FCF2F2E0353
:100F96000319CE2FCF2FB22F22082304031DD42FDF
:100FA600D52FDF2FAD01AD0ADF2F0130F100003064
:100FB600F2008331D123863120002E030319E42F5A
:100FC600E52FD82F8331892386310130F100003097
:100FD600F2008331D123863158302000A40002303C
:100FE600A5000800203084000030850011308331D0
:0A0FF6005023873120008531A72D1C
:020000040001F9
:04000E00E43FFF1FAD
:00000001FF
