:08000000803102288731F02F46
:1007360008001630210097000800F30112308331BB
:10074600EC2383310800C73020009B009A019110EA
:100756001C309C000800273028009D009C012000CA
:100766009311043028009E000800F9007908FA0069
:100776007A08F30012308331EC23833108000C3001
:1007860026009E009C019D0125001F08FC390238A9
:100796009F00080070302100990098012200960100
:1007A60021001A1FD72BD82BD32B08008431022403
:1007B60083318331CD23833183319C23833183314C
:1007C600AE2383318331C22383318331A623833120
:1007D6000800F5007308F6007508F700F801FB2B12
:1007E60076088431782483310130F4007408F807E0
:1007F60077087802031C002C012CF32B080022003A
:1008060090018C018D018E01083021009000EF309F
:100816008C00CD308D00C7308E0023008D0137301F
:100826008C002400900108308D00210095132200D1
:100836009D0108007108FF3EF300FF30723DF40091
:10084600383020009500A501A001A1018531C325FE
:100856008431740820002102031D332C7308200202
:10086600031C362C372C292C08008331D9238431DC
:100876000230F1000030F20084311D2484318331CE
:10088600A023843120000D1D492C4A2C4D2C873184
:100896000F27843183319B2384318531C3258431ED
:1008A600502C80310228FA00FB01FC017B08F30082
:1008B60012308331EC2384310C30F1000030F20029
:1008C60084311D2484310130FB070030FC3D7C0857
:1008D600803AF90080307902031D732CFA307B02CE
:1008E600031C762C772C592C0800F0008030F2007F
:1008F6007008F10028001D08F63E9C00710872057C
:100906000319862C872C8B2C063026009C008E2CF7
:10091600033026009C002000931D922C932C8E2CD5
:1009260093117236F2007208031D9A2C9B2C812CAF
:1009360026009C010800FA007A08FB00FC01FD0174
:100946000130F9007908FC077B08F3007C080C3CB1
:100956008331EC238431F3017C088331EC23843129
:100966004B30F1000030F20084311D248431013017
:10097600F9007908FD070C307D02031CC32CC42C3A
:10098600A32C0800FA007A08FB00FC01FD010130E7
:10099600F9007908FC077B08F3007C088331EC2317
:1009A6008431F3017C080C3C8331EC238431F30160
:1009B60006308331EC238431F430F1000130F2004B
:1009C60084311D2484310130F9007908FD070C308B
:1009D6007D02031CEF2CF02CCA2C0800FA007A08C2
:1009E600FB00FC01FD010130F9007908FC077B08DA
:1009F600F3007C088331EC238431F3017C080C3C42
:100A06008331EC238431F30106308331EC238431C6
:100A16004B30F1000030F20084311D248431013066
:100A2600F9007908FD070C307D02031C1B2D1C2DD7
:100A3600F62C0800FA007A08FB00FC01FD01F30120
:100A46000C308331EC2385310130F9007908FC073D
:100A56007B08F3007C088331EC238531F3017C08A5
:100A6600063C8331EC2385314B30F1000030F20037
:100A760084311D2485310130F9007908FD070630DF
:100A86007D02031C472D482D222D0800FA007A0806
:100A9600FB00FC01FD017B08F3000C308331EC23E5
:100AA60085310130F9007908FC077B08F3007C08E2
:100AB6008331EC238531F3017C08063C8331EC233A
:100AC6008531F430F1000130F20084311D24853186
:100AD6000130F9007908FD0706307D02031C742DEC
:100AE600752D4E2D08002000911C7A2D7B2D762D1C
:100AF60091100130F0007008A6070130F000700870
:100B0600A5070A302502031C892D8A2D8F2DA501E4
:100B16000130A0070030A13D32302602031C942D7F
:100B2600952D9A2DA6010130F0007008A4073230E9
:100B36002402031C9F2DA02DA52DA4010130F00039
:100B46007008AA078C1DA82DA92DBA2D2208031DF1
:100B5600AD2DAE2DBA2D033028020318B32DB42DBA
:100B6600B92D0130F0007008A807BA2DA8018C1D18
:100B7600BD2DBE2DC12DA201A20AC22DA2010800C3
:100B86002000911CC72DC82DC32D911003102200E3
:100B96008E1D03140318D02DD32D22008E15D52DAE
:100BA60022008E110130F00070082000A6070130E7
:100BB600F0007008A5070A302502031CE32DE42D7A
:100BC600E92DA5010130A0070030A13D32302602F3
:100BD600031CEE2DEF2DF42DA6010130F000700858
:100BE600A40732302402031CF92DFA2DFF2DA4018F
:100BF6000130F0007008AA072B08031D032E042EEF
:100C06000F2E0D19072E082E0C2E22008E160E12F0
:100C16000F2E22008E120E1620008C1D132E142E5F
:100C2600192EA201A20A22008D141C2EA201220056
:100C36008D1008002000AB01AB0A22008E160E12A2
:100C46008331A02386310130F1000030F200843177
:100C56001D248631FF308431F1248631FA30F100CB
:100C66000030F20084311D248631FF3084319E2409
:100C76008631FA30F1000030F20084311D248631CD
:100C8600FF3085311D258631FA30F1000030F20043
:100C960084311D2486318331A02386310130F10051
:100CA6000030F20084311D248631FF308431562411
:100CB60086318331A0238631FA30F1000030F2000C
:100CC60084311D2486312000AB01AB0A22008E122E
:100CD6000E16FF308331B8238631E830F100033039
:100CE600F20084311D2486318331A0238631FA3007
:100CF600F1000030F20084311D2486310800200006
:100D0600AC002C08AE00AF01B001B00AAB01AB0AD3
:100D160022008E160E128331A02386310130F10097
:100D26000030F20084311D24863120002E08F300A5
:100D360000308331EC238631F3010C308331EC2310
:100D4600863120002E08F30001308331EC238631F2
:100D5600F30105308331EC2386313230F100003067
:100D6600F20084311D2486312000AD010130F900E6
:100D76007908AF070130F9007908B0072E08F300AB
:100D86002F088331EC238631F30120002F080C3C19
:100D96008331EC23863120002E08F300300883319E
:100DA600EC238631F30120003008063C8331EC2326
:100DB60086313230F1000030F20084311D24863154
:100DC6000130F90079082000AD0704302D02031C1C
:100DD600ED2EEE2EB92E0630B0002E08F3000C30A4
:100DE6008331EC238631F30100308331EC238631E5
:100DF60020002E08F30006308331EC238631F30100
:100E060000308331EC2386316430F1000030F2008B
:100E160084311D24863108002000AB01AB0A220074
:100E26000D168D16DC2F85317625873120000E1D97
:100E36001D2F1E2F222F22008E160E12252F220066
:100E46008E120E1620002808031D2A2F2B2F472F3F
:100E5600280827060319302F312F472FA701220014
:100E66000D168D168D108331A02387312000AA011F
:100E76003F2F853176258731023020002A0203185C
:100E8600452F462F3C2FB02F2803031D4B2F4C2FE9
:100E9600692F280827060319512F522F692FA701FA
:100EA600A70A22000D168D168D148331A0238731D3
:100EB6002000AA01612F8531762587310230200076
:100EC6002A020318672F682F5E2FB02F02302806DC
:100ED600031D6E2F6F2F8D2F280827060319742FD9
:100EE600752F8D2F0230A70022000D128D128D1046
:100EF60019308331B82387312000AA01852F853127
:100F060076258731023020002A0203188B2F8C2F7A
:100F1600822FB02F03302806031D922F932FB02F58
:100F2600280827060319982F992FB02F0330A700FA
:100F360022000D128D128D10FF308331B8238731B8
:100F46002000AA01A92F853176258731023020009D
:100F56002A020318AF2FB02FA62F0E1DB32FB42FC2
:100F6600C72F2908031DB82FB92FC72FA901A90A12
:100F760022008E160E1205308431C52487310530C5
:100F8600853149258731DC2F0E19CA2FCB2FDC2F4F
:100F96002903031DCF2FD02FDC2FA90122008E128B
:100FA6000E1605308431C524873105308531492533
:100FB600873120000D19E02FE12F162F22000D1288
:100FC6008D128D108331A02387310130F10000305E
:100FD600F20084311D24873108002000A001A10100
:100FE600A201A301A401A501A601A701A801A901C7
:0A0FF600AA01AB0120008431382C61
:020000040001F9
:08000000FF3FFF3FFF3FFF3F00
:04000E00E43FFF1FAD
:00000001FF
