:020000040000FA
:08000000803102288731F22F44
:1006C0000800080020001A08080020001C15080077
:1006D00020001C1108002800150808002800171524
:1006E000080028001711080028001C08080028002E
:1006F0001E15080028001E11080016302100970062
:10070000080022008E120E12080022008E160E1211
:10071000080022008E120E16080022000D128D1203
:10072000080022000D168D16080022008D100C10F6
:10073000080022008D140C140800F000700820003E
:100740009B000800F000700820009A000800F000EC
:100750007008280096000800F00070082800950036
:100760000800F000700828009D000800F0007008E4
:1007700028009C000800F301123084316824833182
:100780000800833181238331833161238331080061
:10079000F93020009B009A0191103D309C00080028
:1007A000843145248331FF308331F42383310800C1
:1007B00084314524833119308331F4238331080097
:1007C000F930280096009501200093103D30280054
:1007D00097000800273028009D009C0120009311FD
:1007E000043028009E000800F9007908FA007A0811
:1007F000F300123084316824833108000C30260065
:100800009E009C019D0125001F08FC3902389F00B5
:100810000800703021009900980122009601210003
:100820001A1F132C142C0F2C0800003020009118D4
:100830000130F000700803191E2C1F2C202C911081
:1008400008000030200093180130F00070080319F0
:100850002A2C2B2C2C2C93100800003020009319EC
:100860000130F00070080319362C372C382C931106
:1008700008008431522484318331C123843185318D
:10088000A62584313F2C8031022820000D19492CE7
:100890004A2C4E2C22008E160E12512C22008E1243
:1008A0000E16080084317E24843184310924843179
:1008B00083317D2384318331EA2384318331E02302
:1008C00084318331C82384318331FE23843108008D
:1008D000F5007308F6007508F700F801772C760824
:1008E0008431992484310130F4007408F8077708C2
:1008F0007802031C7C2C7D2C6F2C080022009001B8
:100900008C018D018E01083021009000EE308C00AA
:10091000CD308D00CF308E0023008D0127308C002C
:100920002400900108308D002100951322009D01C4
:100930000800F0008030F2007008F10028001D0867
:10094000F63E9C00710872050319A72CA82CAC2C4C
:10095000063026009C00AF2C033026009C002000AF
:10096000931DB32CB42CAF2C93117236F200720885
:10097000031DBB2CBC2CA22C26009C010800FA00F5
:10098000FB01FB0A2000291CC62CC72CCB2C833171
:1009900081238431EB2C7B08F300123084316824EE
:1009A00084312000A401A501D82C8531E7258431AC
:1009B0000030200025020C3003192402031CE12C16
:1009C000E22CD52C0130F9007908FB077B0A031DC6
:1009D000EA2CEB2CC22C0800FA007A08FB00FC0180
:1009E000FD010130F9007908FC077B08F3007C0861
:1009F0000C3C843168248431F3017C088431682400
:100A00008431F30106308431682484312000A4014C
:100A1000A501162D8531E72584312000291C112DD3
:100A2000122D162D8331812384311F2D0030250294
:100A30004B3003192402031C1E2D1F2D0A2D0130DB
:100A4000F9007908FD070C307D02031C282D292DA3
:100A5000F12C0800FA007A08FB00FC01FD010130CE
:100A6000F9007908FC077B08F3007C0884316824CE
:100A70008531F3017C080C3C843168248531F30115
:100A800006308431682485312000A401A501542D4D
:100A90008531E72585312000291C4F2D502D542DFF
:100AA0008331812385315D2D003025024B300319C0
:100AB0002402031C5C2D5D2D482D0130F9007908BE
:100AC000FD070C307D02031C662D672D2F2D0800BD
:100AD000FA007A08FB00FC01FD01F3010C308431BF
:100AE000682485310130F9007908FC077B08F300A0
:100AF0007C08843168248531F3017C08063C84310C
:100B0000682485312000A401A501922D8531E725B7
:100B100085312000291C8D2D8E2D922D833181232E
:100B200085319B2D003025024B3003192402031C14
:100B30009A2D9B2D862D0130F9007908FD0706308E
:100B40007D02031CA42DA52D6D2D08008531E72500
:100B500085312000291CAD2DAE2DB52DFF308731FC
:100B6000122785312000A401A501A81CB82DB92D9C
:100B7000C42D281CBC2DBD2DC42DFF30863151261F
:100B800085312000A401A501A81CC72DC82DE62D84
:100B900000302502643003192402031CD02DD12D0E
:100BA000E62DA401A501291DD62DD72DDB2D8331DE
:100BB000D0238531E62DA91CDE2DDF2DE32D8331D9
:100BC000D8238531E62D833181238531080020002B
:100BD000931CEB2DEC2DE72D93100130F0007008E5
:100BE000A7070130A4070030A53D0130A20700305F
:100BF000A33D200821040319FE2DFF2D052E0130F1
:100C0000A0020030A13BA810062EA8140530270230
:100C1000031C0B2E0C2E372EA701F1018E1C112E5A
:100C2000122E132EF1140C1F162E172E182E7115BE
:100C30000E1D1B2E1C2E1D2E71148E1D202E212EDE
:100C4000222EF1168C1D252E262E272E71160E1CF7
:100C50002A2E2B2E2C2EF115260871060319312E63
:100C6000322E352E7108A600372E7108A900291ED4
:100C70003A2E3B2E4B2E22008D140C142000A91E60
:100C8000422E432E472E22000D168D16502E220086
:100C90000D128D12502E22008D100C100D128D127F
:100CA000080020002810A201A3018331852386318A
:100CB000200029185C2E5D2E622EFF3085312A25FA
:100CC0008631652E8331812386312000A401A50160
:100CD000752E8531E72586312000291C702E712E56
:100CE000752E8331812386317E2E00302502FA3025
:100CF00003192402031C7D2E7E2E692E2000291844
:100D0000822E832E882EFF308431EC2486318B2E68
:100D10008331812386312000A401A5019B2E8531DA
:100D2000E72586312000291C962E972E9B2E833195
:100D300081238631A42E00302502FA3003192402C3
:100D4000031CA32EA42E8F2E20002918A82EA92E16
:100D5000AE2EFF30853168258631B12E8331812357
:100D600086312000A401A501C12E8531E7258631F9
:100D70002000291CBC2EBD2EC12E8331812386313B
:100D8000CA2E00302502FA3003192402031CC92E92
:100D9000CA2EB52E20002918CE2ECF2ED42EFF30ED
:100DA0008431BF248631D72E83318123863183312C
:100DB0008123863120002918DE2EDF2EE72E833195
:100DC00089238631FF308331F4238631FF2E83312E
:100DD00081238631FF2E8531E725863120002918B1
:100DE000F22EF32EFB2E2919F62EF72EFB2EA91C20
:100DF000FA2EFB2EFF2E833181238631092F3A30C4
:100E000020002302983003192202031C082F092F07
:100E1000EB2E83318123863158302000A000023030
:100E2000A10008002000AA002A08AC00AD01AE0114
:100E3000AE0AA201A3018331852387312000291C3A
:100E4000222F232F532F2C08F300003084316824E5
:100E50008731F3010C3084316824873120002C085D
:100E6000F3000130843168248731F3010530843187
:100E7000682487312000A401A5014A2F8531E72588
:100E8000873120002918452F462F4A2F833181238F
:100E90008731532F00302502283003192402031C08
:100EA000522F532F3E2F2000291C572F582FA02F91
:100EB000AB010130F9007908AD070130F90079087C
:100EC000AE072C08F3002D08843168248731F30124
:100ED00020002D080C3C84316824873120002C0828
:100EE000F3002E08843168248731F30120002E0896
:100EF000063C8431682487312000A401A5018C2F91
:100F00008531E725873120002918872F882F8C2FDE
:100F1000833181238731952F003025022830031932
:100F20002402031C942F952F802F0130F90079089B
:100F30002000AB0704302B02031C9F2FA02F592F3A
:100F4000291CA32FA42FD62F0630AE002C08F300A7
:100F50000C30843168248731F301003084316824F7
:100F6000873120002C08F300063084316824873153
:100F7000F30100308431682487312000A401A501E9
:100F8000CD2F8531E725873120002918C82FC92F9B
:100F9000CD2F833181238731D62F01302502903028
:100FA00003192402031CD52FD62FC12F0230200095
:100FB0002302583003192202031CDF2FE02FF12FE8
:100FC00028148531E725873120002918E82FE92FDB
:100FD000E12F83318123873158302000A000023077
:100FE000A10008002000A001A101A201A301A40109
:100FF000A501A601A701A801A90120008431392C6F
:020000040001F9
:04000E00C43FFF1FCD
:00000001FF
